:020000040800F2
:1000000068680020850200088D0200085111000870
:100010009102000893020008950200080000000009
:10002000000000000000000000000000970200082F
:100030009902000800000000BB0B000829660008B8
:100040009F0200089F0200089F0200086D640008DC
:100050009F0200089F0200089F020008E50C0008AC
:100060004D0D0008B50D00081D0E00089F02000888
:100070009F0200089F0200089F0200089F020008DC
:100080009F0200089F0200089F0200089F020008CC
:100090009F0200089F0200089F020008850E0008CA
:1000A0009F0200089F0200089F0200089F020008AC
:1000B0009F0200089F0200089F0200089F0200089C
:1000C0009F0200089F0200089F0200089F0200088C
:1000D0009F020008656A0008D96A0008356B0008AD
:1000E0009F020008016400089F0200089F020008A8
:1000F0009F0200089F0200089F0200089F0200085C
:100100009F0200089F0200089F0200089F0200084B
:1001100089690008056A0008096800089F0200084C
:100120009F0200089F0200089F0200089F0200082B
:100130009F0200089F0200089F0200089F0200081B
:100140009F0200089F0200089F0200089F0200080B
:100150009F0200089F0200089F020008A96B000888
:100160009F0200089F0200089F0200089F020008EB
:100170009F0200089F0200089F0200089F020008DB
:100180009F0200089F02000800F002F800F06BF8E0
:100190000AA090E8000C82448344AAF10107DA45E2
:1001A00001D100F060F8AFF2090EBAE80F0013F0C9
:1001B000010F18BFFB1A43F00103184708A80000FD
:1001C00028A800000A444FF0000C10F8013B13F07F
:1001D000070408BF10F8014B1D1108BF10F8015BA0
:1001E000641E05D010F8016B641E01F8016BF9D193
:1001F00013F0080F1EBF10F8014BAD1C0C1B09D1EA
:100200006D1E58BF01F801CBFAD505E014F8016B5B
:1002100001F8016B6D1EF9D59142D6D370470000ED
:100220000023002400250026103A28BF78C1FBD8FF
:10023000520728BF30C148BF0B607047642900F0E7
:10024000A580732900F0D182002070471FB50AF005
:1002500086F99DE8030000F07FFB1FBD10B500206C
:1002600000F0DAFA10BD00F0F5FB1146FFF7EEFFE3
:1002700009F090FD00F02DFC03B4FFF7EFFF03BC85
:1002800009F056FD0948804709480047FEE7FEE7A8
:10029000FEE7FEE7FEE7FEE7FEE7FEE7FEE7FEE736
:1002A00004480549054A064B704700007D66000872
:1002B000890100086848002068680020685800200C
:1002C0006858002072B6704762B67047EFF310802E
:1002D00072B6704780F31088704730BF704720BFF8
:1002E0007047B0FA80F0704790FAA0F0B0FA80F052
:1002F000704790FAA0F070470FB4044910B503AAF4
:10030000029800F077FA10BC5DF814FB7C00002026
:100310000FB41CB5074B06AA7B44694600900598AC
:1003200000F039FA0020694600F048FA1CBC5DF87C
:1003300014FB0000A104000070B50C460546012A1C
:1003400005D02878800600D5EA69002302E0012361
:1003500005E05B1C934202D2E05C0028F9D1A86959
:10036000E618C01AA861286A184428622846AFF324
:10037000008004E0D5E9012114F8010B9047B44254
:10038000F8D32846AFF3008070BD00002DE9F0419E
:100390000646002410687529314616A510D0AFF323
:1003A0000080002802DA404213A507E031688A077E
:1003B00001D512A502E0490704D511A5012401E0E9
:1003C000AFF3008000210A2206F1240709E0B0FB08
:1003D000F2FCB0FBF2F302FB1C00303078541846FC
:1003E000491C0028F3D123462A463046BDE8F04197
:1003F00000F072B9000000002D0000002B0000008A
:10040000200000002DE9F0410F460546002028623B
:100410002846E968884770B3252805D0D5E9012129
:100420009047286A401CF2E7E9682846002688477A
:100430006C2804460AD0682C08D04C2C35D06A2C85
:1004400031D0742C31D07A2C2FD016E0E9680646D2
:1004500028468847B042044608D16C2E23D04FF47A
:1004600080662846E9688847044606E06C2E03D07B
:100470004FF4807601E01EE04026E4B1A4F1410093
:10048000192802D8203446F400663A462146284608
:100490002E60FFF7D3FE60B1012808D0FF1D27F0C2
:1004A00007070837B4E78026DBE70026D9E73F1DBA
:1004B000AEE72046B2E7286ABDE8F0812DE9F041B9
:1004C000074615460E46102000F0CCF804000AD06E
:1004D0006760C4E9026500F0C1F80168216004604A
:1004E0000020BDE8F0810120FBE710B5431C02E0CD
:1004F00010F8011B71B18107FAD14FF0013202C827
:100500008C1A8C4314EAC211F9D0C01A0A0603D01F
:10051000C01E10BDC01A10BD0A0401D0801E10BD3F
:100520000902FCD0401E10BD032A40F2308010F0BA
:10053000030C00F0158011F8013BBCF1020F62447E
:1005400098BF11F801CB00F8013B38BF11F8013B0F
:10055000A2F1040298BF00F801CB38BF00F8013BBC
:1005600011F0030300F08081083AC0F0088051F8D0
:10057000043B083A51F804CBA0E80810F5E7121D37
:100580005CBF51F8043B40F8043BAFF30080D20756
:1005900024BF11F8013B11F801CB48BF11F8012B22
:1005A00024BF00F8013B00F801CB48BF00F8012B45
:1005B00070474FF0000200B5134694469646203926
:1005C00022BFA0E80C50A0E80C50B1F12001BFF40C
:1005D000F7AF090728BFA0E80C5048BF0CC05DF872
:1005E00004EB890028BF40F8042B08BF704748BFC0
:1005F00020F8022B11F0804F18BF00F8012B704734
:1006000010B5044610F0030F08BF11F0030F40F0BF
:1006100015804FF0013E121FC0F20E8051F8043BCE
:10062000A3EB0E0C2CEA030C1CEACE1C08BF40F80E
:10063000043BF0D0A1F1040102F10402521E08DBD8
:1006400011F8013B002B00F8013BF7D1114600F0F7
:100650003DF9204610BD704770477047004870470D
:100660002447002070B5064600F056F9056806F1EB
:100670000B0020F00704B4429CBF002070BD2B4645
:100680006A68BAB11068A04210D304F10801884228
:100690003CBF5068586007D3516810194160116819
:1006A000091B016058601460101D70BD134652682C
:1006B000002AE7D12146284600F03AF90028DED189
:1006C00070BD10B500F02CF9006810BD10B50446DF
:1006D00000F026F9046010BD2DE9F0470D4699465B
:1006E0009246044600F124080168880604D5E069B2
:1006F00021F01001216000E00120A84201DD471B2C
:1007000000E00027A1697A1902EB0900081AA0612C
:100710002078C00602D42046AFF30080002608E00F
:10072000D4E901211AF806009047206A401C761C83
:1007300020624E45F4DB2078C0060AD52046AFF390
:10074000008006E0D4E9012130209047206A401C57
:100750002062381EA7F10107F4DC07E0D4E901218B
:1007600018F805009047206A401C2062281EA5F159
:100770000105F3DC2046AFF300802078000602D5A7
:100780000220BDE8F0870120FBE7000001694A1C58
:1007900002610878704700B58FB0CDE901310021C2
:1007A000059105497944CDE9031011466846FFF7E4
:1007B00029FE0FB000BD0000E5FFFFFF0A6802F848
:1007C000010B0A60704710B5436913B1AFF30080A5
:1007D00001E0FFF7B1FD012010BD127800F1240106
:1007E0000A7000224A700122EDE711684FF0FF32D3
:1007F000E9E70000074B70B50D467B44FFF7CBFFE0
:100800000446284600F005F910B14FF0FF3070BDE6
:10081000204670BD739500002DE9F0410646FFF7B4
:100820001DFF8046454613E016B1E068B0420ED188
:1008300020682860D4E90101D8F800708847204674
:1008400000F0C0F8D8F80000B842EBD100E025462F
:100850002C68002CE8D1BDE8F08110B500F0E2F87A
:10086000BDE8104000F0D9B810B5203AC0F00B80B8
:10087000B1E81850203AA0E81850B1E81850A0E8A4
:100880001850BFF4F5AF5FEA027C24BFB1E81850FE
:10089000A0E8185044BF18C918C0BDE810405FEA6E
:1008A000827C24BF51F8043B40F8043B08BF7047EA
:1008B000D20728BF31F8023B48BF11F8012B28BFEF
:1008C00020F8023B48BF00F8012B70474FF00002B0
:1008D0000429C0F0128010F0030C3FF46CAECCF190
:1008E000040CBCF1020F18BF00F8012BA8BF20F8C0
:1008F000022BA1EB0C01FFF75EBE5FEAC17C24BFB7
:1009000000F8012B00F8012B48BF00F8012B7047BD
:1009100000487047EC46002000487047F44600202D
:1009200000487047EC46002070477047704770479A
:1009300038B504460A4600206946AFF30080002817
:1009400008BF38BD02460099204600F0A8F80120F3
:1009500038BD012000F0DFB8F8B5AFF300800546E0
:1009600000200C46102000BF0646A819A0420DD951
:10097000324669460020AFF30080070008BF00F050
:10098000CAF80098A04218BF0546C419FFF7C4FF73
:1009900005600746F01D20F007004619284600F0C4
:1009A0000AF8B44208BFF8BDA21B31463868BDE85A
:1009B000F84000F074B800210160C0E901107047F0
:1009C0001020704770B50446051FFFF7A5FF0068AB
:1009D000002C14BF446870BD002C18BFAC423CBF53
:1009E00020466468F8D301680A18AA4218BF456017
:1009F00003D12A6805461144016028684119A142C3
:100A00001CBF6C6070BD6168696021680844286023
:100A100070BD007B00F080007047002801D009F015
:100A200087B9704710B5002102A000F05BF80120E3
:100A300010BD00005349475056464E3A205075723B
:100A400065207669727475616C20666E2063616CD6
:100A50006C6564007546FFF75BFFAE4605006946AE
:100A6000534620F00700854618B020B5FFF718FC64
:100A7000BDE820404FF000064FF000074FF000089F
:100A80004FF0000B21F00701AC46ACE8C009ACE820
:100A9000C009ACE8C009ACE8C0098D467047034600
:100AA00040688C46002818BF88423CBF0346406817
:100AB000F8D318681844884207D00CF1030020F0DE
:100AC0000700001D411A521A0146081D0A60FFF76F
:100AD00079BF10B50446AFF300802046BDE8104052
:100AE000FFF7CABB70B505460C460A2000E06D1C36
:100AF00000F018F835B128780028F8D102E0641C1D
:100B000000F010F814B120780028F8D1BDE870404A
:100B10000A2000F007B810B500F00CF8BDE810404E
:100B2000FFF77BBF08B569468DF800000320ABBE18
:100B300008BD704710B5012805D0002103A0FFF7BC
:100B4000D1FF012010BD09A1F8E700005349475229
:100B5000544D454D3A204F7574206F66206865618D
:100B600070206D656D6F7279000000003A20486555
:100B70006170206D656D6F727920636F7272757030
:100B80007465640022484FF6FF710170002080F305
:100B900009882048016881F308881F484FF0805178
:100BA000016062B6FEE71C484FF08051016070475B
:100BB00019484FF080510160704772B6EFF3098019
:100BC00050B11EF0100F08BF20ED108A203880E8C9
:100BD000F00F12490968086000B5114880475DF8B8
:100BE00004EB104810490A7802700C480F490A6853
:100BF0000260106890E8F00F20301EF0100F08BF60
:100C0000B0EC108A80F309884EF0040E62B670478B
:100C100022ED00E06401002004ED00E05C01002012
:100C200069280008EA000020EB0000206001002095
:100C30001FB5684605F070FB019804B010BD10B5F3
:100C400000F020F800F01AF810BD000010B50024E4
:100C500000BF00BFFFF73AFB044600BF00BF1021F2
:100C6000054800F005FC00BF00BF2046FFF732FB3F
:100C700000BF00BF10BD00006C2B002010B5FFF7B7
:100C8000E5FF10BD10B500200249086000F00AF829
:100C900010BD00009000002001490860704700006E
:100CA0009000002010B5FFF7C3FF04460848006815
:100CB00040F08070064908600020064948600846F8
:100CC000006840F0010008602046FFF7E5FF10BD16
:100CD000FCED00E0001000E00149486870470000AA
:100CE000001000E010B50221144800F017FA28B1F6
:100CF00004F0ECFF124880ED000A1AE004F0E6FF71
:100D0000104880ED000A90ED000A0D48D0ED000A71
:100D1000B4EEE00AF1EE10FA00D210BD094890EDF1
:100D2000000A0748D0ED000A30EE600A064880ED60
:100D3000010A022000F0ACF800BFEEE70008024014
:100D4000600000205C000020582B002010B504211A
:100D5000144800F0E3F928B104F0B8FF124880ED20
:100D6000000A1AE004F0B2FF104880ED000A90ED8E
:100D7000000A0D48D0ED000AB4EEE00AF1EE10FAD8
:100D800000D210BD094890ED000A0748D0ED000AD6
:100D900030EE600A064880ED020A042000F078F880
:100DA00000BFEEE700080240680000206400002059
:100DB000582B002010B50821144800F0AFF928B1D5
:100DC00004F084FF124880ED000A1AE004F07EFF70
:100DD000104880ED000A90ED000A0D48D0ED000AA1
:100DE000B4EEE00AF1EE10FA00D210BD094890ED21
:100DF000000A0748D0ED000A30EE600A064880ED90
:100E0000030A082000F044F800BFEEE700080240A3
:100E1000700000206C000020582B002010B510211D
:100E2000144800F07BF928B104F050FF124880ED1F
:100E3000000A1AE004F04AFF104880ED000A90ED25
:100E4000000A0D48D0ED000AB4EEE00AF1EE10FA07
:100E500000D210BD094890ED000A0748D0ED000A05
:100E600030EE600A064880ED040A102000F010F809
:100E700000BFEEE700080240780000207400002068
:100E8000582B002010B500F0CFFC00F0E3FC10BDA3
:100E90000149086070470000143C014030B1074927
:100EA000096841F48061054A116005E00349096859
:100EB00021F48061014A116070470000003C02404B
:100EC00070B504460A460026092502B909E0012A40
:100ED00001D1160205E0022A01D1160201E04FF409
:100EE000407600F09FF80546092D28D11548006886
:100EF00020F44070134908600846006830430860D9
:100F00000846006820F0F80008600846006844F0D1
:100F1000020108430B4908600846006840F480302D
:100F2000086000F07FF805460648006820F00200DF
:100F3000044908600846006820F0F8000860284668
:100F400070BD0000103C024009201349096801F4FB
:100F50008031B1F5803F01D101201CE00E490968C4
:100F600001F0100109B1062015E00B49096801F4F0
:100F7000807109B102200EE00749096801F0EF0114
:100F800009B1072007E00449096801F0020109B12D
:100F9000082000E0092070470C3C0240034800682C
:100FA00040F000400149086070470000103C0240DA
:100FB00030B502460C46092500F034F80546092DE7
:100FC00019D10E48006820F440700C4908600846AA
:100FD000006840F4007008600846006840F00100B6
:100FE0000860146000F01EF805460448006820F010
:100FF000010002490860284630BD0000103C024054
:101000000548006800F0004028B1044802490C3946
:101010000860034808607047103C024023016745A0
:10102000AB89EFCD08B509200090FFF78DFF009048
:1010300002E0FFF789FF00909DF800000128F8D03A
:101040009DF8000008BDF0B50A46002100230024E9
:1010500000BF3DE0012505FA01F3156805EA030428
:101060009C4234D105684F000326BE40B54305605D
:1010700015794E00B5400668354305601579012D98
:1010800002D01579022D16D185684F000326BE4087
:10109000B543856055794E00B54086683543856017
:1010A000456801268E40B5434560456896798E4077
:1010B000B6B235434560C5684F000326BE40B54310
:1010C000C560D5794E00B540C6683543C560491C3A
:1010D0001029BFD3F0BDF0B5002300244D07ED0E5D
:1010E00002FA05F3CE1000F1200555F826504E0700
:1010F000F70E0F26BE40B543CF1000F1200646F88C
:101100002750CE1000F1200555F8265045EA03047B
:10111000CE1000F1200545F82640F0BD0246002023
:1011200013690B400BB1012000E0002070474183A0
:101130007047018370474FF6FF7101600021017114
:1011400041718171C171704742694A404261704783
:1011500010B500F069FB00F07DFB10BD10B5044632
:10116000204600F0CFF8204605F0B2F9204600F006
:10117000EDF8022008F0EDFD204600F0B1F8022065
:1011800008F0E7FD204600F0BDF810BD1CB5044690
:10119000012C16D10121022005F08EF801208DF8D6
:1011A000040000208DF8060003208DF805000120C2
:1011B0008DF80700C020009069461848FFF743FFEC
:1011C00024E0022C22D0032C20D10121084605F076
:1011D00073F80121042005F06FF801208DF8040058
:1011E00000208DF8060003208DF8050001208DF801
:1011F00007000002009069460948FFF724FF4FF4FA
:101200000070009069460748FFF71DFF204600F078
:1012100067F8204600F088F81CBD0000000402407A
:10122000000002400008024010B50446204600F0CD
:1012300069F8204605F04CF9204600F075F80220C8
:1012400008F087FD204600F04BF8022008F081FDF1
:10125000204600F057F810BD0146012903D1074888
:101260000068C0B27047022905D0032903D10448A1
:101270000068C0B2F6E70020F4E700001C8240429C
:10128000240241422DE9F04107460D46002438462C
:1012900005F000F9002615E0384600F033F8042088
:1012A00008F057FD384600F01BF86006040E38467B
:1012B000FFF7D2FF08B1601CC4B2042008F049FD5A
:1012C000701CC6B2082EE7DB1DB93846FFF7ACFF2D
:1012D00002E03846FFF742FF2046BDE8F0810000FB
:1012E000012803D10121054A116006E0022804D03B
:1012F000032802D10121024A1160704798824042BE
:10130000A0024042012803D10021054A116006E0F5
:10131000022804D0032802D10021024A116070473C
:1013200098824042A0024042012803D10121054A8F
:10133000116006E0022804D0032802D10121024AEC
:10134000116070479C824042A4024142012803D1AF
:101350000021054A116006E0022804D0032802D1CA
:101360000021024A116070479C824042A40241421F
:1013700070B506460C46304605F0AAF83046FFF731
:10138000C1FF00251BE0E00918B13046FFF7CCFF94
:1013900002E03046FFF7DAFF6006040E022008F094
:1013A000D8FC3046FFF79CFF022008F0D2FC304604
:1013B000FFF7A8FF022008F0CCFC681CC5B2082D7E
:1013C000E1DB70BD10B50446204605F081F82046EB
:1013D000FFF7AAFF2046FFF783FF042008F0B9FCBF
:1013E0002046FFF7B3FF042008F0B3FC2046FFF7C8
:1013F00089FF10BD10B50446204605F069F8204667
:10140000FFF780FF2046FFF7A1FF042008F0A1FCB2
:101410002046FFF765FF2046FFF786FF042008F00F
:1014200098FC10BD70B505460024284605F032F83A
:101430002846FFF779FF012008F08BFC2846FFF7CC
:101440004FFF012008F085FC08E0601CC4B2FA2CB4
:1014500004DD2846FFF7CEFF012070BD2846FFF7C8
:10146000FBFE0028F1D12846FFF74CFF0020F4E7EF
:1014700030B505460C4622460021284600F001F80A
:1014800030BD2DE9F04105460B4694460027002467
:1014900002E03F021F43641C042CFAD3604605F0AF
:1014A0000306294646B1344603E001F8013B401EDD
:1014B000641C08B1042CF8D30A4601E080C2001F66
:1014C0000428FBD2114602E001F8013B401E00282F
:1014D000FAD1BDE8F081000070B5002100230F2291
:1014E000C4781CB3174C246804F4E064C4F5E064C9
:1014F000C4F30721C1F10404E3B20A4144789C40DB
:10150000E1B28478144021430C07210E0E4C05787B
:101510006155047804F01F050124AC4005786D1175
:10152000AD0005F1E025C5F8004109E0047804F0BC
:101530001F050124AC40054D0678761145F826407C
:1015400070BD00000CED00E000E400E080E100E090
:1015500002490143024A1160704700000000FA0589
:101560000CED00E01548164816481748174818486B
:101570001848194819481A481A481B481B481C485B
:101580001C481D481D481E481E481F481F4820482B
:1015900020482148214822482248234823482448FB
:1015A00024482548254826482648274827482848CB
:1015B00028482948294800BF704700002CA6000889
:1015C0008CA5000890A5000894A5000898A500081F
:1015D0009CA50008A0A50008A4A50008A8A50008CF
:1015E000ACA50008B0A50008B4A50008B8A500087F
:1015F000BCA50008C0A50008C4A50008C8A500082F
:10160000CCA50008D0A50008D4A50008D8A50008DE
:10161000DCA50008E0A50008E4A50008E8A500088E
:10162000ECA50008F0A50008F4A50008F8A500083E
:10163000FCA5000800A6000804A6000808A60008EB
:101640000CA6000810A6000814A6000818A600089A
:101650001CA6000820A6000824A6000828A600084A
:1016600010B50348006810B101480068804710BDFC
:10167000A800002070B5044600F0C2F800204849D8
:101680000870484908704849087048490860484946
:101690000860484908704849087048490870484936
:1016A0000860484908604849086048490870484847
:1016B00000680A21B0FBF1F046490860464800681E
:1016C00058B14648056845B14348066803E0761EB0
:1016D000002028602D1D002EF9D10020404908600F
:1016E0004049086040490860404908604049086036
:1016F00040490860404908604049087002F0ECF930
:1017000002F0CCFA204601F07BFB208800B170BDCE
:10171000204601F05DFF208800B1F8E7204601F087
:101720007FFF208800B1F2E7204602F04BF82088C6
:1017300000B1ECE7204602F0FFF9208800B1E6E7AF
:10174000204602F01FFC208800B1E0E7204602F0AE
:1017500041FF208800B1DAE7204601F0A5FE20888D
:1017600000B1D4E7204601F0BDFC208800B1CEE7EF
:10177000204603F09FFE208800B1C8E7204602F013
:101780006DFE208800B1C2E7204603F0EFFE2088FE
:1017900000B1BCE701F05CFAFFF7E4FE00BFB6E77A
:1017A000BC000020BD000020040100205C010020DE
:1017B00060010020EA000020EB000020EC00002087
:1017C000F8000020FC000020000100200C01002097
:1017D000ECA5000808010020BCA50008B8A5000879
:1017E0009C000020A0000020A4000020A8000020F1
:1017F000AC000020B0000020B40000203A0100201E
:10180000064800680649096800EB81000549086040
:101810000846006820F0070008607047B8A5000877
:10182000BCA500086401002008480078012800D009
:10183000704707480078FA2800DBF9E70448007889
:10184000401C0349087000BFF2E70000BD00002003
:10185000BC00002010B500242D480078012800D0DD
:1018600010BD00BFFEF732FD044600BF29480078D6
:1018700028B900BF2046FEF72DFD00BFF0E7254840
:101880000078401E2349087008460078002805DDCE
:1018900000BF2046FEF71EFD00BFE1E71E480078AE
:1018A000002805DD00BF2046FEF714FD00BFD7E786
:1018B00002F0FEF8194908700846007800EB400075
:1018C000174951F820001749086008460068164972
:1018D0000968884205D100BF2046FEF7FBFC00BF27
:1018E000BEE710480068D0F89000401C0D49096818
:1018F000C1F890000D480068401C0C490860FFF7D3
:1019000057F900BF2046FEF7E5FC00BF00BFA7E780
:10191000BD000020BC00002004010020EB000020DE
:10192000A0410020600100205C0100203001002067
:1019300010B500241F480078002800DD10BD1E48A7
:101940000078002800DDF9E700BFFEF7BFFC044681
:1019500000BF02F0ADF8194908700846007800EBA6
:101960004000174951F820001649086008460068F1
:1019700015490968884205D100BF2046FEF7AAFC38
:1019800000BFDBE70F480068D0F89000401C0D490D
:101990000968C1F890000D480068401C0B490860B8
:1019A000FFF701F900BF2046FEF794FC00BF00BF1F
:1019B000C4E70000BC00002004010020EB00002070
:1019C000A0410020600100205C01002030010020C7
:1019D00070B50446002518480078002803DD46F657
:1019E0006250208070BD15480078012803D045F66C
:1019F00089602080F6E712480078FA2803DB45F278
:101A000009202080EEE700BF00BFFEF75FFC05461F
:101A100000BF00BF0A480078401C0949087002F066
:101A20001DFA00BF00BF2846FEF754FC00BF00BFF0
:101A30000020208000BFD5E7BC000020BD000020B2
:101A4000040100202DE9F04105460C46164600270A
:101A500000BF00BFFEF73AFC074600BF00BF012DE4
:101A600003D000200D49087002E001200B490870E6
:101A700014B10B48046006E00A4800680A21B0FB74
:101A8000F1F00749086000BF00BF3846FEF722FCAE
:101A900000BF00BF00203080BDE8F0810C010020B5
:101AA00008010020ECA5000870B504460025204878
:101AB0000078002803DD46F66550208070BD1D4883
:101AC0000078012803D045F689602080F6E71A489F
:101AD000007818B946F664502080EFE700BF00BFD9
:101AE000FEF7F4FB054600BF00BF13480078401E18
:101AF000114908700846007800280ADD00BF00BFC1
:101B00002846FEF7E7FB00BF00BF46F66350208083
:101B1000D4E702F0B1F900BF00BF2846FEF7DAFBB8
:101B200000BF00BFFFF704FF0020208000BFC5E713
:101B3000BC000020BD0000200401002010B50446B8
:101B400012480078E8B901F0B3FF1149087008465F
:101B50000078104908700E48007800EB40000E49EC
:101B600051F820000D490860084600680C490860DB
:101B7000012006490870FFF705F843F699202080F8
:101B800002E045F68A60208010BD0000BD00002004
:101B9000EB000020EA000020A041002060010020AE
:101BA0005C0100202DE9F04107464FF0000800BF1E
:101BB00000BFFEF78BFB804600BF00BF00203D4901
:101BC00008603D4908803D4908803D4908603D491D
:101BD00008603D4908603D4908603D49088100BFF3
:101BE00000BF4046FEF776FB00BF00BF00BF00BF4E
:101BF000FEF76CFB804600BF00BF3648046800BF9C
:101C000000BF4046FEF766FB00BF00BF21E000BFFB
:101C100000BFFEF75BFB804600BF00BF00207834AA
:101C2000E06320602063A061A082E0826062A06225
:101C3000FFF752F82062783C04F164060020B0817E
:101C4000D4F8BC4000BF00BF4046FEF743FB00BFD6
:101C500000BF002CDBD100BF00BFFEF737FB804682
:101C600000BF00BF1C48056800BF00BF4046FEF72C
:101C700031FB00BF00BF12E000BF00BFFEF726FB34
:101C8000804600BF00BF05F120060020B081AD698D
:101C900000BF00BF4046FEF71DFB00BF00BF002D88
:101CA000EAD103F0E3FA03F05DFD00203880BDE8DF
:101CB000F0810000D0000020CA0000201A0100209E
:101CC0002C010020400100204C010020FC000020DD
:101CD0009441002034010020F0000020F8B50446B3
:101CE00000266946324800F08FFDBDF8000018B1AB
:101CF000BDF800002080F8BD6A460021022000F0F7
:101D0000F7FDBDF8000018B1BDF800002080F2E733
:101D100000BF00BFFEF7DAFA064600BF00BF002092
:101D20002449086000BF00BF3046FEF7D3FA00BF69
:101D300000BF00252048006820490968884205D96D
:101D40001D4800681D490968B0FBF1F525B91A481E
:101D500000680A21B0FBF1F56A460021284600F030
:101D6000C7FD6946124800F063FABDF8000018B1DB
:101D7000BDF800002080BEE700BF00BFFEF7A6FA56
:101D8000064600BF00BF00200D49086009480068F2
:101D90000C49086001200C49087000BF00BF3046A4
:101DA000FEF798FA00BF00BF0020208000BFA2E726
:101DB000284600201C010020ECA50008D4A500083E
:101DC0002C010020200100202801002010B503482C
:101DD000006810B101480068804710BDAC000020C9
:101DE0002DE9FF4F87B004469046DDE91BA5DDE9EC
:101DF0001496179F0020039087480078002805DD7F
:101E000047F24A1028800BB0BDE8F08F1CB947F2AA
:101E1000AD102880F7E7B8F1000F03D147F24F105B
:101E20002880F0E71EB946F62F602880EBE77B4854
:101E30000068874203D246F630602880E3E71698B0
:101E4000B84203D346F631602880DCE7B9F1400F91
:101E500003D346F273202880D5E7B9F1000F06D1ED
:101E60006F48844203D046F273202880CBE7B9F153
:101E70003F0F06D16B48844203D046F2732028807E
:101E8000C1E7204602F0B6FB002028800AF00100DE
:101E900090B10AF0020078B105960020069008E0A3
:101EA0000021059801600598001D05900698401CCA
:101EB00006900698B842F3D3169806EB800004907B
:101EC000CDE9007A32464046049B0A9900F06EFB49
:101ED0000590C4F828800A98E0620898206284F887
:101EE0003790059820600498A0601998606519984B
:101EF00018B94D480068A06501E01998A0651A98C6
:101F000060606662A763A4F83CA04FF0000B08E095
:101F1000002104F17C0040F82B100BF1010000F0CF
:101F2000FF0BBBF1000FF3D004F16400189901F02E
:101F3000C3FB204600F082F800BF00BF00BFFEF7E1
:101F4000C5F9039000BF00BF38480078401C3749EE
:101F5000087000BF00BF0398FEF7BCF900BF00BFC8
:101F600000BF94F8370001F0C3FD204601F0DEFE0B
:101F7000204602F0F5FA2E480088401C2C490880C3
:101F80002C48007801282DD000BF00BF00BFFEF70D
:101F90009DF9039000BF00BF24480078401E2349EC
:101FA000087008460078A0B923480088002809DD99
:101FB00000BF00BF0398FEF78DF900BF00BF01F01E
:101FC00023FF0DE000BF00BF0398FEF783F900BFB9
:101FD00006E000BF00BF0398FEF77CF900BF00BF1A
:101FE00000BF10E700BF00BF00BFFEF76FF903900E
:101FF00000BF00BF0D480078401E0C49087000BFAC
:1020000000BF0398FEF766F900BF00BF00BFFFF7EF
:102010008FFC00BFF7E60000BC000020E8A5000828
:10202000D04000200C4000200801002004010020C6
:1020300038010020BD000020C800002010B5044673
:102040000348006818B1204601490968884710BD57
:102050009C00002070B504460D46002667480078B5
:10206000002803DD47F24E10288070BD644884428A
:1020700003D147F24C102880F7E76248844203D12D
:1020800047F24D102880F0E77CB900BF00BFFEF793
:102090001DF9064600BF00BF5B48046800BF00BFD3
:1020A0003046FEF717F900BF00BF00BF00BF00BFFA
:1020B000FEF70CF9064600BF00BF54480078401CEC
:1020C0005249087000BF00BF3046FEF703F900BF59
:1020D00000BF00BF94F8360008282DD2DFE800F0DA
:1020E00004090E10080A0F11204601F05FFE54E0AB
:1020F00053E000BF204603F09DF84EE000BF00BF54
:1021000000BF204603F096F894F83400082810D257
:10211000DFE800F004070508090A0B0600BF00BF4E
:1021200008E000BF00BF00BF00BF204601F011FC67
:1021300000E000BF00BF30E000BF00BF00BFFEF7FF
:10214000C5F8064600BF00BF30480078401E2F4942
:10215000087008460078A0B92D480088002809DDDD
:1021600000BF00BF3046FEF7B5F800BF00BF01F06A
:102170004BFE0DE000BF00BF3046FEF7ABF800BFDE
:1021800006E000BF00BF3046FEF7A4F800BF00BF66
:1021900000BF46F62D60288067E700BF04F16400A9
:1021A00001F068FA204600F037F8204602F0F0F916
:1021B00018480088401E17490880204602F01AFA85
:1021C000FF2084F8360000BF00BF00BFFEF77EF896
:1021D000064600BF00BF0D480078401E0B4908703E
:1021E00000BF00BF3046FEF775F800BF00BF00BF5C
:1021F00000202880FFF79CFB00BF36E7BC000020D2
:102200000C400020D04000205C0100200401002090
:10221000C80000203801002010B5044603480068BB
:1022200018B1204601490968884710BDA000002068
:102230007FB504460D46002600BF00BFFEF746F8F6
:10224000064600BF00BF1CB11548006884420AD191
:1022500000BF00BF3046FEF73DF800BF00BF47F2A9
:10226000571028807FBD00BF00BF3046FEF732F810
:1022700000BF00BF0B48007800280BDD0020009055
:102280000190034602462146CDE90205064800F0CA
:1022900061FFE7E72946204602F024FB00BFE1E7A3
:1022A0005C010020BC0000205452455310B5044688
:1022B0000348006818B1204601490968884710BDE5
:1022C000A40000202DE9F04780460E4614461D4626
:1022D0004FF000097D480078002805DD46F2AE1079
:1022E00028800020BDE8F0871EB1B6F5004F02D16E
:1022F00000E000BF04E045F6256028800020F1E7FB
:1023000000BF0CB10020206000BF00BFFDF7DEFF62
:10231000814600BF00BF6E480068406CA8B36C489F
:102320000068406C401E6A49096848646848006853
:10233000476C1CB166480068006C2060FEF7CCFC5E
:1023400063490968096C401A61490968C1F8A40029
:102350005F480068D0F8A8005D490968D1F8A4106A
:10236000884207D25A480068D0F8A4005849096842
:10237000C1F8A80000BF00BF4846FDF7ABFF00BF93
:1023800000BF002028803846ACE7FFE706F4004095
:1023900058B100BF00BF4846FDF79CFF00BF00BF1B
:1023A00046F2B010288000209CE74A4800780028B8
:1023B0000BDD00BF00BF4846FDF78CFF00BF00BF2C
:1023C00046F66350288000208CE700BF4148007823
:1023D000401C4049087000BF00BF4846FDF77AFF27
:1023E00000BF00BF00BF434607220021084601F09E
:1023F000F5F900BF00BF00BFFDF768FF814600BFD1
:1024000000BF34480078401E3249087000BF00BF4A
:102410004846FDF75FFF00BF00BF00BFFFF788FA27
:1024200000BF00BFFDF752FF814600BF00BF284834
:10243000006890F8350020B1012826D0032834D157
:102440002CE0FCB122480068006C2060FEF744FCE0
:102450001F490968096C401A1D490968C1F8A400A0
:102460001B480068D0F8A80019490968D1F8A410E1
:10247000884207D216480068D0F8A40014490968B9
:10248000C1F8A8000020288013E01CB110480068A3
:10249000006C206046F2A91028800AE00CB10020F0
:1024A000206047F2D920288003E046F62E6028807D
:1024B00000BF00BF06480068476C00BF00BF484629
:1024C000FDF708FF00BF00BF38460BE7BC00002047
:1024D0005C010020040100202DE9F04705460E466E
:1024E00017461C464FF0000A2E480078002804DDED
:1024F00047F259102080BDE8F0871EB946F2D5207A
:102500002080F8E71FB946F2D5202080F3E700BF0E
:1025100000BFFDF7DBFE824600BF00BF0DB92248B9
:102520000568286868B900BF00BF5046FDF7D2FEB5
:1025300000BF00BF00203060386047F2521020809A
:10254000D9E795F83C0000F0010068B900BF00BF72
:102550005046FDF7BFFE00BF00BF0020306038606E
:1025600047F254102080C6E700BF00BF5046FDF779
:10257000B1FE00BF00BF4FF00008D5F8249003E083
:1025800009F1040908F10108D9F800000028F7D082
:10259000C6F80080A86BA0EB0800386000202080FF
:1025A00000BFA8E7BC0000205C010020F0B5044695
:1025B000DDE9055602EB850020F007004FF0000C26
:1025C000071F3846C7F800C04FF4805C071F384625
:1025D000C7F800C04FF0150C071F3846C7F800C0F9
:1025E0004FF0140C071F3846C7F800C04FF0130C0B
:1025F000071F3846C7F800C04FF0120C071F3846B7
:10260000C7F800C04FF0110C071F3846C7F800C0CC
:102610004FF0100C071F3846C7F800C04FF0090CE8
:10262000071F3846C7F800C04FF0080C071F384690
:10263000C7F800C04FF0070C071F3846C7F800C0A6
:102640004FF0060C071F3846C7F800C04FF0050CC6
:10265000071F3846C7F800C04FF0040C071F384664
:10266000C7F800C04FF0030C071F3846C7F800C07A
:102670004FF0020C071F3846C7F800C04FF0010C9E
:10268000071F3846C7F800C04FF0000C071F384638
:10269000C7F800C04FF0807C071F3846C7F800C05D
:1026A000071F38463C60DFF85CC1071F3846C7F893
:1026B00000C04FF0123C071F3846C7F800C04FF06B
:1026C000033C071F3846C7F800C04FF0023C071F05
:1026D0003846C7F800C0071F38463B60071F38461A
:1026E00039604FF0310C071F3846C7F800C04FF073
:1026F000300C071F3846C7F800C04FF0290C071FE1
:102700003846C7F800C04FF0280C071F3846C7F8F6
:1027100000C04FF0270C071F3846C7F800C04FF025
:10272000260C071F3846C7F800C04FF0250C071FBE
:102730003846C7F800C04FF0240C071F3846C7F8CA
:1027400000C04FF0230C071F3846C7F800C04FF0F9
:10275000220C071F3846C7F800C04FF0210C071F96
:102760003846C7F800C04FF0200C071F3846C7F89E
:1027700000C04FF0190C071F3846C7F800C04FF0D3
:10278000180C071F3846C7F800C04FF0170C071F7A
:102790003846C7F800C04FF0160C071F3846C7F878
:1027A00000C04FF0113C071F3846C7F800C04FF07B
:1027B000103C071F3846C7F800C04FF0093C071F00
:1027C0003846C7F800C04FF0083C071F3846C7F826
:1027D00000C04FF0073C071F3846C7F800C04FF055
:1027E000063C071F3846C7F800C04FF0053C071FDE
:1027F0003846C7F800C04FF0043C071F3846C7F8FA
:1028000000C0F0BD254A00087FB505460C461248B9
:10281000854203D147F25B1020807FBD0F4885427F
:1028200003D147F25C102080F7E70D4800780028BC
:102830000BDD002000900190034602462946CDE9B9
:102840000204084800F086FCE7E72146284602F02B
:1028500057FB00BFE1E700000C400020D040002003
:10286000BC0000205453555310B51D48006810B1EA
:102870001B4800688047FEF72FFA04461948006895
:1028800019490968884215D016480068D0F89800A0
:10289000201A14490968C1F8940012480068D0F859
:1028A0009C0010490968D1F8941008440D49096842
:1028B000C1F89C000C480068C0F8984009480068BE
:1028C000D0F8B40009490968884205D20748006871
:1028D00004490968C1F8B40000200449086010BD2B
:1028E000B00000205C0100206001002000010020F9
:1028F0002DE9F04105460E46144600273F48007872
:10290000002804DD47F275202080BDE8F0813C48B6
:102910000078002803DD46F663502080F5E736B1E5
:10292000022E05D0042E0AD0082E09D101E000BFE6
:1029300000BF1DB947F27E202080E6E704E003E0F7
:1029400045F625602080E0E700BF00BF00BF00BF64
:10295000FDF7BCFC074600BF00BF29480078401CBB
:102960002749087000BF00BF3846FDF7B3FC00BF21
:1029700000BF00BF01202349096881F836002346C3
:10298000324629461F48006802F076FB2088A8B12D
:1029900000BF00BF00BFFDF799FC074600BF00BFA6
:1029A00017480078401E1649087000BF00BF38461F
:1029B000FDF790FC00BF00BF00BFA6E7114800680C
:1029C00001F0F4F900BF00BF00BFFDF77FFC074630
:1029D00000BF00BF0A480078401E0949087000BFC8
:1029E00000BF3846FDF776FC00BF00BF00BFFEF712
:1029F0009FFF0020208000BF87E70000BC00002070
:102A0000040100205C0100202DE9FF5F05460E4611
:102A100017469846DDE90EA4002000907248007821
:102A2000002804DD47F275202080BDE8FF9F6F4835
:102A30000078002803DD46F663502080F5E70AF0B1
:102A40000E0BBBF1000F09D0BBF1020F07D0BBF199
:102A5000040F10D0BBF1080F0ED101E000BF00BF82
:102A6000B8F1000F06D12FB926B91DB947F27E2063
:102A70002080DAE704E003E045F625602080D4E713
:102A800000BF2AF01E0008B1012000E000200390E2
:102A90000398012803D145F625602080C5E7CAF3D5
:102AA000001002900298C0B9B8F57A7F03D347F2BC
:102AB0007B202080B9E73B2F03DD47F27A2020807E
:102AC000B3E73B2E03DD47F279202080ADE7632D8D
:102AD00012DD47F278202080A7E742F20F7086428D
:102AE00003DD47F2792020809FE7B5F57A7F03DB8D
:102AF00047F27820208098E73D48D0F800904FF4C6
:102B0000FA70B0FBF9F0404400FB09F04FF47A7121
:102B1000B0FBF1F14FF461606843C6EB061200EBC5
:102B20008200384400FB091001900198002856D01B
:102B300000BF00BF00BFFDF7C9FB009000BF00BF92
:102B40002A480078401C2949087000BF00BF00983F
:102B5000FDF7C0FB00BF00BF00BF01202549096889
:102B600081F8360023465A4622480199006802F04F
:102B700083FA2088A8B100BF00BF00BFFDF7A6FB05
:102B8000009000BF00BF19480078401E1749087028
:102B900000BF00BF0098FDF79DFB00BF00BF00BF56
:102BA00043E71448006801F001F900BF00BF00BF0F
:102BB000FDF78CFB009000BF00BF0C480078401E62
:102BC0000A49087000BF00BF0098FDF783FB00BFF3
:102BD00000BF00BFFEF7ACFE0020208002E047F2FD
:102BE0007E20208000BF20E7BC00002004010020E0
:102BF000ECA500085C01002010B586B000F01EF8BE
:102C0000FEF76AF8044605A800210091CDE90114F9
:102C100003900748007800EB4000064A02EB800171
:102C200000231A46044800F095FA06B010BD0000D3
:102C3000EA000020A04100205449434B10B503484E
:102C4000006810B101480068804710BDB400002042
:102C50002448254825482648264827482748284804
:102C60002848294829482A482A482B482B482C48D4
:102C70002C482D482D482E482E482F482F483048A4
:102C80003048314831483248324833483348344874
:102C90003448354835483648364837483748384844
:102CA0003848394839483A483A483B483B483C4814
:102CB0003C483D483D483E483E483F483F484048E4
:102CC00040484148414842484248434843484448B4
:102CD000444845484548464846484748474800BF55
:102CE0007047000030A6000898A7000832A6000828
:102CF00033A6000834A6000838A600083CA6000841
:102D000039A6000864A6000865A6000866A60008A3
:102D100068A600086AA600086CA600086EA600084F
:102D200070A6000890A6000892A6000894A60008C5
:102D300096A6000898A600089AA600089CA6000877
:102D4000C8A60008C9A60008CAA60008CCA60008A4
:102D5000CEA60008CFA60008D0A60008D2A600087C
:102D6000D4A60008D6A60008D8A60008DAA600084F
:102D7000DCA600080CA700080DA700080EA7000895
:102D80000FA7000810A7000812A7000814A7000842
:102D90003CA700083DA700083EA700083FA7000881
:102DA00040A7000842A7000844A7000848A7000859
:102DB00049A700084AA700084BA700084CA700082D
:102DC0004DA700084EA700084FA7000850A700080D
:102DD00052A7000853A7000854A7000856A70008E8
:102DE00058A7000859A700085CA7000890A700088A
:102DF00091A7000892A7000894A7000896A70008CA
:102E00000021034A1160034A1180018070470000CD
:102E1000D4000020D80000202DE9F04F85B00446F2
:102E2000894692469B46DDF838800020009000BF1E
:102E300000BFFDF74BFA009000BF00BFBAF1000FD2
:102E40000AD0BAF1010F0DD0BAF5004F05D06FF4DA
:102E50000040504460B906E000BF206A40EA090023
:102E6000206214E000BF206A20EA090020620EE020
:102E700000BF00BF0098FDF72DFA00BF00BF45F668
:102E80002560A8F80000002005B0BDE8F08F00BF65
:102E9000C4F824B004F1080001900198008958B9E1
:102EA00000BF00BF0098FDF715FA00BF00BF00206B
:102EB000A8F80000206AE7E700BF61480078401CDE
:102EC0005F49087000BF00BF0098FDF703FA00BF1C
:102ED00000BF00BF01980768BD687FE07868029076
:102EE00095F8880000F00F0003900398012821D086
:102EF00002282ED0042802D0082836D10EE0206AFD
:102F0000D5F8801000EA0106D5F88000B04204D15F
:102F10005A463146284600F097F859E0206AD5F81D
:102F2000801000EA010626B15A463146284600F0D4
:102F30008BF84DE0D5F88000216A20EA0106D5F82B
:102F40008000B04204D15A463146284600F07CF851
:102F50003EE0D5F88000216A20EA010626B15A46F3
:102F60003146284600F070F832E000BF00BF00BFD5
:102F7000FDF7ACF9009000BF00BF31480078401E5B
:102F80002F49087008460078A0B92E48008800280C
:102F900009DD00BF00BF0098FDF79CF900BF00BF2E
:102FA00000F032FF0DE000BF00BF0098FDF792F97E
:102FB00000BF06E000BF00BF0098FDF78BF900BF1F
:102FC00000BF00BF43F6FF20A8F8000000205BE729
:102FD00000BF029F0FB1BD6800E00025002D7FF407
:102FE0007DAF00BF00BF00BFFDF770F9009000BFCC
:102FF00000BF13480078401E1149087000BF00BF91
:103000000098FDF767F900BF00BF00BF0AF4004059
:1030100008B9FEF78DFC00BF00BFFDF757F900901F
:1030200000BF00BF206A049000BF00BF0098FDF7FA
:1030300051F900BF00BF0020A8F80000049823E762
:1030400004010020C800002070B504460E46154655
:1030500034342665002060702070E560A078343C30
:10306000082816D2DFE800F0040508090706101149
:1030700000BF00BF00BF0DE000BF204601F024FCF0
:10308000002084F8360005E000BF042084F83600F4
:1030900000E000BF00BF204600F05BFC70BD0000F8
:1030A000002400BF19E000BF00BFFDF70FF9044680
:1030B00000BF00BF09480068401C08490860084874
:1030C0000068401C0649086000BF00BF2046FDF7AD
:1030D00001F900BF00BFFEF7C3FAE4E7B800002023
:1030E0001C01002010B58AB0044600200E4908607B
:1030F0000B2000210591CDE90704069108460B49F4
:1031000009680B4A12680B4B1B68CDE90132CDE907
:1031100003103F200023084A08A100900C48FEF746
:103120005FFE0AB010BD0000B800002094A50008A2
:1031300090A500088CA50008A130000875432F4F0A
:10314000532D4949492049646C65205461736B00D3
:103150000C4000202DE9F84F04460D4616461F4648
:10316000DDE90BABDDF82890DDF83480002000901D
:1031700000BF00BFFDF7AAF8009000BF00BF2B48BA
:1031800000882B49098888423EDA28480088401C7C
:1031900026490880274800880988884203DA23489E
:1031A0000088244908802448006804602248006898
:1031B000856021480068C6601F48006807821E4875
:1031C0000068C0F814901C480068A0F818A01A48BD
:1031D0000068C0F81CB018480068406816490860CC
:1031E000012016490881164808604860002000F058
:1031F0007FFC1448007818B1124800781249087012
:103200000020A8F8000008E010480088401C0F4982
:10321000088044F25360A8F8000000BF00BF009887
:10322000FDF758F800BF00BFBDE8F88FC8000020C8
:10323000A0A50008CA000020C0000020A041002076
:10324000D0400020EA000020EC000020CC0000204C
:103250003EB5594800680068584A811A904279D0B2
:103260000FDC5749084400283ED056490844A8B10D
:1032700055490844002860D05449084400286AD1C0
:103280003FE053480844002850D0524908440028E1
:1032900062D0514908440028F1D110E002A8464DFF
:1032A00000902D68EB69444D2D682A8B424D2D68A6
:1032B0006969414D2D68A868FFF7AEFD7AE002A963
:1032C0003D480068C0693C4DCDE900012D682B8B5D
:1032D000394D2D682A8A384D2D68E968364D2D689C
:1032E000A86800F035FC65E0334B1B68DA69324BA7
:1032F0001B68198B304B1B68986802AB00F04EFEC0
:1033000058E002A92C480068C0692B4DCDE90001A6
:103310002D682B8B284D2D682A8A274D2D68E9684A
:10332000254D2D68A86801F0C9F943E022490968D4
:10333000886802A901F0D6FA3CE01F4B1B68DA69E5
:103340001D4B1B68198B1C4B1B68986802AB01F066
:1033500075FB2FE007E02CE017490968886802A98F
:1033600001F0CEFD26E01D49097801EB41011C4A20
:1033700002EB810000F09EFD0F48006802AB0021C7
:10338000C269184801F05AFB17480068401E1649E8
:1033900008600846006858B9144800680860FDF7DE
:1033A0009BFC044602AB22460021114801F046FB7B
:1033B00000E000BF00BF3EBDC40000205449434BA5
:1033C000ADBAB2BE0DF90BFAF2F8F7FF0006F6FF40
:1033D00000F7FDF700FFEFFF03FE0FFEEC000020FB
:1033E000A041002064450020580100205401002025
:1033F00028460020002700BF4CE0002648E000BF20
:1034000000BFFCF763FF074600BF00BF22480088EB
:1034100088B90020214908810860486000F07AFBE3
:1034200000BF00BF3846FCF755FF00BF00BFFEF7E6
:103430007FFA01262CE000BF00BF3846FCF74AFFA8
:1034400000BF00BFFDF748FC0546FFF701FFFDF791
:1034500043FC441B12480068A04201D2104804609B
:1034600000BF00BFFCF732FF074600BF00BF0D489A
:10347000006840680B49086007480088401E0649FC
:10348000088000BF00BF3846FCF724FF00BF00BF24
:10349000002EB4D0B1E70000C8000020A0410020F9
:1034A000D0000020C4000020F0B589B005460020FF
:1034B000314908803148006820B944F252602880C0
:1034C00009B0F0BD2E480088022803DA44F25460A7
:1034D0002880F5E700202B49086028480468264624
:1034E000203600270CE0284820600020A060E06023
:1034F000208260612083666020342036781C87B289
:103500001F4800888742EEDB203C1C480668666046
:103510001E4806601E48066000201E4908801E499D
:1035200008801E48006818B944F255602880C7E733
:103530001B4800681B490968884203D244F2566060
:103540002880BDE7032000210591CDE907050691FC
:1035500013480068144A1268104B1B68CDE9030138
:10356000CDE9013200910B46104A11A11748FEF730
:1035700037FC00BFA4E70000CC0000209CA5000899
:10358000A0A50008D00000204E4F4E45C0000020EE
:10359000C4000020C8000020CA000020A8A5000820
:1035A000B0A50008E8A50008ACA50008F5330008A0
:1035B00075432F4F532D4949492049535220517586
:1035C000657565205461736B00000000D0400020D9
:1035D0000021034A1160034A1180018070470000F6
:1035E000DC000020E000002070B502460B461046CB
:1035F000114610315E1EB5B2002408E001600026BD
:1036000046600681C66010301031661CB4B2AC4210
:10361000F4DB0026066046600681C66070BD0000CF
:1036200010B504461048006818B945F21E70208095
:1036300010BD0E48008818B945F21D702080F7E7CC
:103640000A48018808480068FFF7CEFF064800686E
:10365000074908600548008888800020C8800881E4
:10366000208000BFE4E70000CCA50008C4A5000846
:103670009441002010B5014648894B89002B17DD85
:103680000A680C4B1B6813600A4C4B682360234686
:10369000DB884C891B1B074CE38023469B884C89A5
:1036A0002344044CA38000234B818B810B604B602F
:1036B00010BD0000944100200181002242818281DE
:1036C00002604260704700002DE9F0410D46DDE9DF
:1036D0000674B0F80AC0B0F80880C44505DB46F2AD
:1036E000935CA4F800C0BDE8F081DFF8D4C0BCF85A
:1036F00004C0BCF1000F04D145F21D7CA4F800C049
:10370000F1E7DFF8BCC0DCF80010DFF8B480D1F8D6
:1037100000C0C8F800C0C446BCF804C0ACF1010C3D
:10372000A8F804C0C446BCF806C00CF1010CA8F807
:1037300006C0C446BCF808C0B8F80680C44507DA1D
:10374000DFF87CC0BCF806C0DFF87480A8F808C0B9
:10375000B0F80AC0BCF1000F06D1016041604FF023
:10376000010CA0F80AC017E003F0100CBCF1000F28
:1037700007D1066831604FF0000CC1F800C001604D
:1037800004E0D0F804C0C1F800C04160B0F80AC03D
:103790000CF1010CA0F80AC0B0F80CC0B0F80A8017
:1037A000C44503DAB0F80AC0A0F80CC04D600A8125
:1037B000CF604FF0000CA4F800C000BF93E70000FA
:1037C000944100200021034A1160034A11800180C6
:1037D00070470000E4000020E80000202DE9F041DF
:1037E00005460C4616461F461548006880F83460AA
:1037F00000201349096881F83500394610480068EF
:1038000000F092FE6CB104F10808EC600122294638
:103810000B48006800F016F82946404600F066F8AC
:1038200006E0002006490968C88705490968086359
:1038300003480168204600F019F8BDE8F081000057
:103840005C01002010B5C287016300230AE0002458
:103850004C600C600C614C610C83CC618860203141
:103860005C1CA3B29342F2DB10BD000030B548B13E
:103870004568C1F8C05000F10804226893681D6AC9
:10388000C56113E091F83450022D02D0072D08D104
:1038900003E007A5C1F8C05007E007A5C1F8C05074
:1038A00003E008A5C1F8C05000BF00BF30BD000054
:1038B0005461736B205100005461736B2053656D2C
:1038C000000000002000000030B507A5C1F8C0507E
:1038D00000F1080422681AB193681D6AC56101E00D
:1038E00001A5C56130BD000020000000F0B58E6864
:1038F00096F8375007893FB90127078100274F60A5
:103900000F600160416023E007897F1C0781026826
:1039100006E0946894F83770AF4200DD02E0526828
:10392000002AF6D100BF32B900274F6043680B6010
:10393000596041600CE017682FB9116000270F60D3
:103940004A60016004E013680B604A6059601160CE
:10395000F0BD2DE9F0410446256BE68F0AE0D5F86D
:103960000C8008F108072946384600F00AF820358F
:10397000701E86B2002EF2DC0020E0872063BDE8D6
:10398000F08110B50489012C03D100240460446047
:1039900011E00C6824B94A680024146002600AE04F
:1039A0004C6824B90B6800245C60436003E00B683A
:1039B0004A685A6013600489641E048100244C60C4
:1039C0000C6010BD2DE9F84306460C461746984694
:1039D000089D94F83600082850D2DFE800F004056E
:1039E000080906072B2C00BF00BF00BF47E000BF3F
:1039F00094F83400032807D143463A46214630461E
:103A0000009500F03FF803E0E765A4F860802564C6
:103A100036B12046FFF79DFF21463046FFF754FFA1
:103A2000204600F051FF00203434A070607004F88C
:103A3000340924E000BF94F83400032807D143463A
:103A40003A4621463046009500F01CF803E0E76551
:103A5000A4F860802564204601F0ECFB36B12046D6
:103A6000FFF777FF21463046FFF72EFF042034345E
:103A7000A0700020607004F8340900E000BF00BFAF
:103A8000BDE8F883F0B50446059E086BCD8F0AE0CB
:103A9000C768A74204D1046142610383C66104E0A0
:103AA00020306F1EBDB2002DF2DC00BFF0BD000063
:103AB00070B50025074C03E005F12000C5B2241DB8
:103AC00020680028F8D02068FCF70BFC2844C5B219
:103AD000284670BD94000020002004E00021034A25
:103AE00042F82010401C0228F8D3704794000020B0
:103AF00030B5420900F01F030121C3F11F04A140AA
:103B0000034C54F822400C43014D45F8224030BD8F
:103B10009400002030B5420900F01F030121C3F1D9
:103B20001F04A140034C54F822408C43014D45F83A
:103B3000224030BD940000200021034A1160034A56
:103B40001180018070470000F0000020F400002088
:103B50002DE9F04F85B007468A4693461C46002063
:103B6000029000BF00BF00BFFCF7B0FB029000BF97
:103B700000BF48480078401C4649087000BF00BF9D
:103B80000298FCF7A7FB00BF00BF00BF07F10806C3
:103B90003089002842D104F0100010B94FF000081D
:103BA00001E04FF01008DDE90E0143465A46CDE929
:103BB0000001514607F12000FFF786FD00BF00BF5E
:103BC00000BFFCF783FB029000BF00BF31480078C4
:103BD000401E3049087008460078A0B92E48008879
:103BE000002809DD00BF00BF0298FCF773FB00BF8F
:103BF00000BF00F009F90DE000BF00BF0298FCF71C
:103C000069FB00BF06E000BF00BF0298FCF762FB43
:103C100000BF00BF00BF05B0BDE8F08F04F4007026
:103C200008B1358900E00125D6F8009011E0D9F8F7
:103C300008000390D9F8040004900E985B465246A1
:103C4000009038460399FFF7BDFEDDF81090681E1E
:103C500085B2002DEBD100BF00BF00BFFCF736FBE3
:103C6000029000BF00BF0B480078401E0949087051
:103C700000BF00BF0298FCF72DFB00BF00BF00BFD4
:103C800004F4004008B9FDF753FE00210F980180AD
:103C900000BFC0E704010020C800002000210AE0A6
:103CA00001EB4102054B03EB82000022028102601E
:103CB00042604A1CD1B24029F2D37047A041002093
:103CC00010B5044694F83700FFF712FF94F8370058
:103CD00005490978884203D1204600F027F802E020
:103CE000204600F003F810BDEA00002010B590F85F
:103CF000373003EB43030C4C04EB83010B893BB9D6
:103D000001230B810023C36003610860486009E060
:103D10000B895B1C0B810B68C360002303610A687D
:103D20001061086010BD0000A041002010B590F89F
:103D3000373003EB43030B4C04EB83010B893BB996
:103D400001230B810023C36003610860486008E021
:103D50000B895B1C0B810023C3604A680261D06041
:103D6000486010BDA041002010B501460C8924B167
:103D7000012C03D0022C0CD101E000BF14E0086834
:103D80004A6802610024C4601461D0600A6048601F
:103D90000AE008684A68C36800241C61C4600261C4
:103DA000D0600B60486000BF00BF10BD2DE9F0413E
:103DB000054695F8370000EB4000124901EB8004FE
:103DC0002F69EE6887B946B90020208120606060C5
:103DD00095F83700FFF79EFE0EE02089401E2081F7
:103DE00000203061266007E02089401E2081FE60AF
:103DF0000EB9676000E0376100202861E860BDE827
:103E0000F0810000A041002010B5002400BFFCF7A5
:103E10005DFA044600BF00200C4908700C480D49AB
:103E2000086008460068D0F89000401C0968C1F896
:103E3000900009480068401C07490860FCF7B3FE81
:103E400000BF2046FCF746FA00BF10BDEB00002083
:103E5000D0400020600100203001002010B504484F
:103E60000078012803D1FCF737FF0249086010BD34
:103E700004010020F800002010B50A48007880B93D
:103E8000FCF72AFF08490968441A08480068A0425C
:103E900001D20648046006480068A04201D20448E6
:103EA000046010BD04010020F8000020FC00002088
:103EB0000001002070B5054600262E480078012834
:103EC00000D070BD00BF00BFFCF700FA064600BF7F
:103ED00000BF2C683CB900BF00BF3046FCF7FAF9C0
:103EE00000BF00BFEDE72448844207D100BF00BFF8
:103EF0003046FCF7EFF900BF00BFE2E7A06D10B15C
:103F0000A06D401EA065A06D38B100BF00BF304657
:103F1000FCF7E0F900BF00BFD3E72889022807DAE1
:103F200000BF00BF3046FCF7D5F900BF00BFC8E7AF
:103F300012480078002807DD00BF00BF3046FCF7BC
:103F4000C9F900BF00BFBCE72846FFF70DFF2C688A
:103F5000606D18B90A480068A06501E0606DA06551
:103F600000BF00BF3046FCF7B5F900BF00BF00BF7F
:103F7000A7E700000C0100200C40002004010020F5
:103F8000080100200021034A1160034A11800180CA
:103F90007047000010010020140100202DE9FF5F90
:103FA0000446884691461D460020019000BF00BF90
:103FB000FCF78CF9019000BF00BF04F108073889B5
:103FC00000284FD10420012804D0022814D004284E
:103FD00034D123E0206AFF280DD100BF00BF019833
:103FE000FCF778F900BF00BF46F6C55028800020D6
:103FF00004B0BDE8F09F22E04FF6FF71206A8842CE
:104000000BD100BF00BF0198FCF764F900BF00BFEF
:1040100046F6C55028800020EAE710E0206A401CE0
:1040200058B900BF00BF0198FCF754F900BF00BFAA
:1040300046F6C55028800020DAE700E000BF00BF48
:10404000206A401C2062D4F820A0C4F8249000BF4D
:1040500000BF0198FCF73EF900BF00BF0020288098
:104060005046C5E700BF25480078401C234908702A
:1040700000BF00BF0198FCF72DF900BF00BF00BFD3
:1040800008F4007008B13E8900E00126D7F800B0BE
:1040900011E0DBF808000290DBF804000390002335
:1040A0001A46CDF8009020460299FFF78BFCDDF808
:1040B0000CB0701E86B2002EEBD1D4F820A000BF49
:1040C00000BF00BFFCF702F9019000BF00BF0B4822
:1040D0000078401E0949087000BF00BF0198FCF736
:1040E000F9F800BF00BF00BF08F4004008B9FDF7B1
:1040F0001FFC0020288050467AE7000004010020C1
:1041000086B00020009000BF06E0C349096848005F
:1041100001AA0021FEF7ECFBC04800780128F4D189
:1041200001A8FDF73FFD0027BD480068BA490968AE
:10413000884205D9BA480068B7490968B0FBF1F769
:1041400027B9B74800680A21B0FBF1F762E1FCF734
:10415000C3FD804600BF00BFFCF7B8F8009000BF69
:1041600000BFB0480068B04908600020AD49086051
:1041700000BF00BF0098FCF7ADF800BF00BFAB4820
:104180000068A9490968884248D9A8480068A84930
:10419000884205D242F2107003900120029023E081
:1041A000A2480068A349884205D24FF47A70039070
:1041B0000A20029018E09D4800689F49884203D277
:1041C0006420039002900FE0984800689B49884261
:1041D00005D20A2003904FF47A70029004E0012087
:1041E000039042F210700290904801680298B1FB6F
:1041F000F0FA8D49039809684843B0FBFAF042F29F
:104200001071081A8E4908808E48008809888842F3
:1042100008DA8B4800888B49088003E042F210706E
:1042200087490880FDF7D2FD002500BF00BFFCF7DD
:104230004DF8009000BF00BF8348046800BF00BF76
:104240000098FCF747F800BF00BF5AE000BF00BF6E
:1042500000BFFCF73BF8009000BF00BF7B48007830
:10426000401C7A49087000BF00BF0098FCF732F884
:1042700000BF00BF00BF54F89C0F6060002044F8EE
:104280009C0900BF00BF00BFFCF720F8009000BFF2
:1042900000BF6E480078401E6C49087008460078E0
:1042A000A0B96B480088002809DD00BF00BF009856
:1042B000FCF710F800BF00BFFFF7A6FD0DE000BF40
:1042C00000BF0098FCF706F800BF06E000BF00BF83
:1042D0000098FBF7FFFF00BF00BF00BFD4F8A000AD
:1042E000054400BF00BFFBF7F1FF009000BF00BF17
:1042F000D4F8BC4000BF00BF0098FBF7EBFF00BF45
:1043000000BF002CA2D145B34948854205D242F2F4
:10431000107005904FF0010B1BE04648854205D216
:104320004FF47A7005904FF00A0B12E04248854234
:1043300003D26420059083460BE04048854204D2B6
:104340000A2005904FF47A7B03E00120059042F2A9
:10435000107BB5FBFBF0049003E0002005900120EA
:10436000049000BF00BFFBF7B1FF009000BF00BF8B
:104370003548046800BF00BF0098FBF7ABFF00BFE3
:1043800000BF2BE0D4F8A000059948430499B0FB86
:10439000F1F086B242F21070864200D90646A4F8C7
:1043A0008C60B4F88E00B04201DAA4F88E6001ABE4
:1043B00004F1AC02111D2046FEF78EF800BF00BFCD
:1043C000FBF784FF009000BF00BFD4F8BC4000BFE3
:1043D00000BF0098FBF77EFF00BF00BF002CD1D1CB
:1043E0001C480078012805D100201A49087001A84E
:1043F000FDF7D8FBFCF770FCA0EB08091648006835
:10440000484502D21448C0F8009001AA002138465D
:10441000FEF76EFA9BE60000D4A5000828010020F4
:10442000ECA500081C010020240100202001002030
:10443000801A060000093D00005A62020084D71766
:10444000180100201A01002034010020040100207E
:10445000C8000020160100202C01002010B58AB0F1
:10446000044600201F4908601F4908601F49086072
:104470001F4908701F4908701F48006820B946F698
:104480002B6020800AB010BD1C4800681C490968D8
:10449000884203D246F62C602080F3E71948007862
:1044A0003F2803D346F62A602080EBE70320002153
:1044B0000591CDE907040691084610490968124A9A
:1044C00012680D4B1B68CDE90132CDE903100D4890
:1044D000007800230D4A0EA100901248FDF780FCE1
:1044E00000BFCFE71C010020240100202001002094
:1044F0002801002016010020D8A50008E0A500082A
:10450000E8A50008D0A50008DCA5000801410008C6
:1045100075432F4F532D49494920537461742054DA
:1045200061736B00A044002038B504460D4685B188
:104530006B4602222946204600F09EFDBDF8000091
:1045400018B9032084F8360006E0022084F836000B
:1045500002E0022084F836002046FFF727FC38BD31
:104560000021C0F8B8100949096819B90021C0F83C
:10457000BC1007E005490968C0F8BC100349096888
:10458000C1F8B800014908607047000034010020FC
:10459000D0F8B820D0F8BC104AB90D4B196011B151
:1045A0000023C1F8B8300023C0F8BC300FE029B9AF
:1045B0000023C2F8BC30C0F8B83008E0C2F8BC1024
:1045C000C1F8B8200023C0F8BC30C0F8B83070473C
:1045D000340100200021044A1160044A1180044A79
:1045E0001160018070470000340100203801002074
:1045F0003001002070B5044600202060A06060609B
:10460000E06020616061A061E06129A0206200207B
:104610006062A062E0622064E065A4F860000021AE
:1046200004F16400FFF748F8002044F8740F60605C
:10463000E060A0822061743C002506E0002104F1C6
:104640007C0040F82510681CC5B2002DF6D0002073
:104650003434206120676067606084F85600E0674A
:10466000A06720814FF0004060610020A061E06100
:1046700020626062A4F85800A4F85A00E065206641
:10468000FCF72AFB064666660020A066C4F8800098
:1046900020706070A0704020E0700020C4F884009A
:1046A000C4F8880004A0C4F88C00343C70BD00003D
:1046B0003F5461736B000000200000002DE9FC47AF
:1046C00004460F4690469946DDE90A654FF0000A18
:1046D00000BF00BF00BFFBF7F9FD824600BF00BF6F
:1046E00076480078401C7549087000BF00BF5046EE
:1046F000FBF7F0FD00BF00BF00BF0CB970480468B5
:104700000020288094F8360008287DD2DFE800F0E9
:1047100004053E3F0607404100BF00BF00BF4B46B7
:104720004246394604F16400CDE90065FEF7CCFF4E
:1047300000BF00BF00BFFBF7C9FD824600BF00BF3E
:104740005E480078401E5D49087008460078A0B9B0
:104750005C480088002809DD00BF00BF5046FBF719
:10476000B9FD00BF00BFFFF74FFB0DE000BF00BF6A
:104770005046FBF7AFFD00BF06E000BF00BF50464C
:10478000FBF7A8FD00BF00BF00BF93E000BF00BF64
:1047900000BF94F83400022821D143463A4621460E
:1047A00000200096FFF70EF900BF00BF00BFFBF727
:1047B0008DFD824600BF00BF40480078401E3F4943
:1047C000087000BF00BF5046FBF784FD00BF00BF6C
:1047D00000BF09F4004090BBFDF7AAF838E04B4653
:1047E0004246394604F16400CDE90065FEF76CFFEE
:1047F00000BF00BF00BFFBF769FD824600BF00BFDE
:104800002E480078401E00E023E02C49087008463E
:104810000078A8B92B480088002809DD00BF00BF38
:104820005046FBF757FD00BF00BFFFF7EDFA0EE063
:1048300000BF00BF5046FBF74DFD00BF07E007E09B
:1048400000BF00BF5046FBF745FD00BF00BF00BFE3
:1048500030E000BF00BF00BFFBF738FD824600BF5D
:1048600000BF16480078401E1449087008460078BA
:10487000A0B914480088002809DD00BF00BF5046D9
:10488000FBF728FD00BF00BFFFF7BEFA0DE000BF39
:1048900000BF5046FBF71EFD00BF06E000BF00BF93
:1048A0005046FBF717FD00BF00BF00BF46F62D6066
:1048B000288000BF00BFBDE8FC8700000401002085
:1048C0005C010020C800002010B50446204600F01E
:1048D000B1FC94F8360000F0040010B92046FFF750
:1048E000EFF910BD70B504460D46002600BF00BFAD
:1048F000FBF7ECFC064600BF00BF0020288094F8C0
:10490000360008287BD2DFE800F0040506071243D2
:10491000556700BF00BF00BF00BF00BF3046FBF7B8
:10492000D9FC00BF00BF47F25310288072E000BFDF
:104930003B480078401C3A49087000BF00BF304631
:10494000FBF7C8FC00BF00BF00BF14F88A0F401E71
:10495000207014F88A0928B9002084F8360020460F
:10496000FFF7B2FF00BF00BF00BFFBF7AFFC06467A
:1049700000BF00BF2A480078401E2949087000BFC8
:1049800000BF3046FBF7A6FC00BF00BF00BF41E000
:1049900014F88A0F401E207014F88A0910B90120FB
:1049A00084F8360000BF00BF3046FBF793FC00BF21
:1049B00000BF2FE014F88A0F401E207014F88A09F7
:1049C00010B9022084F8360000BF00BF3046FBF764
:1049D00081FC00BF00BF1DE014F88A0F401E20704C
:1049E00014F88A0910B9032084F8360000BF00BF0C
:1049F0003046FBF76FFC00BF00BF0BE0FFE700BFD6
:104A000000BF3046FBF766FC00BF00BF46F62D60D6
:104A1000288070BD00BFFCF78BFF00BFF9E70000E6
:104A20000401002008B504480068FDF73FFC694612
:104A30000020FDF70FFB08BD5C0100202DE9F843C5
:104A40000446884617461D464FF0000900BF00BFC8
:104A500000BFFBF73BFC814600BF00BFFE4800786B
:104A6000401CFD49087000BF00BF4846FBF732FC00
:104A700000BF00BF00BF0CB9F848046827640020DD
:104A8000288094F83600082871D2DFE800F0040589
:104A9000EBEC0607EDEE00BF00BF00BF04200128CD
:104AA00004D0022839D004286FD170E0606CFF2850
:104AB00032D100BF00BF00BFFBF708FC814600BF3A
:104AC00000BFE5480078401EE349087008460078BA
:104AD000A0B9E3480088002809DD00BF00BF4846B0
:104AE000FBF7F8FB00BF00BFFFF78EF90DE000BF3A
:104AF00000BF4846FBF7EEFB00BF06E000BF00BF6B
:104B00004846FBF7E7FB00BF00BF00BF46F6C550B5
:104B100028800020BDE8F88371E04FF6FF71606CDB
:104B2000884233D100BF00BF00BFFBF7CFFB8146F7
:104B300000BF00BFC8480078401EC749087008463B
:104B40000078A8B9C6480088002809DD00BF00BF6A
:104B50004846FBF7BFFB00BF00BFFFF755F90EE06B
:104B600000BF00BF4846FBF7B5FB00BF07E08DE183
:104B700000BF00BF4846FBF7ADFB00BF00BF00BF52
:104B800046F6C55028800020C4E737E037E0606C67
:104B9000401C88BB00BF00BF00BFFBF797FB8146EE
:104BA00000BF00BFAC480078401EAB490870084603
:104BB0000078A0B9AA480088002809DD00BF00BF1E
:104BC0004846FBF787FB00BF00BFFFF71DF90DE06C
:104BD00000BF00BF4846FBF77DFB00BF06E000BFFB
:104BE00000BF4846FBF776FB00BF00BF00BF46F69C
:104BF000C550288000208DE7FFE700E000BF00BF20
:104C0000606C401C6064666C00BF00BF00BFFBF7B7
:104C10005DFB814600BF00BF8F480078401E8E4973
:104C2000087008460078A0B98D480088002809DD82
:104C300000BF00BF4846FBF74DFB00BF00BFFFF7BA
:104C4000E3F80DE000BF00BF4846FBF743FB00BFA1
:104C500006E000BF00BF4846FBF73CFB00BF00BFBB
:104C600000BF45E100BF00BF00BF94F83400072833
:104C700023D100231A46214618460097FEF7A2FECC
:104C8000666C00BF00BF00BFFBF720FB814600BF82
:104C900000BF71480078401E6F49087000BF00BF18
:104CA0004846FBF717FB00BF00BF00BF08F40040F9
:104CB000002801D1FCF73CFEE7E00420012804D0E5
:104CC000022838D004286ED16EE0606CFF2831D104
:104CD00000BF00BF00BFFBF7F9FA814600BF00BF6D
:104CE0005D480078401E5C49087008460078A0B90D
:104CF0005B480088002809DD00BF00BF4846FBF77D
:104D0000E9FA00BF00BFFFF77FF80DE000BF00BF6A
:104D10004846FBF7DFFA00BF06E000BF00BF484689
:104D2000FBF7D8FA00BF00BF00BF46F6C550288089
:104D30000020EFE670E04FF6FF71606C884231D1E1
:104D400000BF00BF00BFFBF7C1FA814600BF00BF34
:104D500041480078401E4049087008460078A0B9D4
:104D60003F480088002809DD00BF00BF4846FBF728
:104D7000B1FA00BF00BFFFF747F80DE000BF00BF6A
:104D80004846FBF7A7FA00BF06E000BF00BF484651
:104D9000FBF7A0FA00BF00BF00BF46F6C550288051
:104DA0000020B7E638E036E0606C401C88BB00BFEE
:104DB00000BF00BFFBF78AFA814600BF00BF26484C
:104DC0000078401E2449087008460078A0B924489D
:104DD0000088002809DD00BF00BF4846FBF77AFACB
:104DE00000BF00BFFFF710F80DE000BF00BF48464E
:104DF000FBF770FA00BF06E000BF00BF4846FBF7B4
:104E000069FA00BF00BF00BF46F6C55028800020E9
:104E100080E6FFE700E000BF00BF606C401C6064FC
:104E2000666C00BF00BF00BFFBF750FA814600BFB1
:104E300000BF09480078401E0749087008460078FE
:104E4000D8B907480088002810DD00BF00BF4846D9
:104E5000FBF740FA00BF05E0040100205C010020E0
:104E6000C800002000BFFEF7CFFF0DE000BF00BF6D
:104E70004846FBF72FFA00BF06E000BF00BF4846D8
:104E8000FBF728FA00BF00BF00BF31E000BF00BF42
:104E900000BFFBF71BFA814600BF00BF1648007831
:104EA000401E1549087008460078A0B913480088CC
:104EB000002809DD00BF00BF4846FBF70BFA00BF22
:104EC00000BFFEF7A1FF0DE000BF00BF4846FBF7A3
:104ED00001FA00BF06E000BF00BF4846FBF7FAF941
:104EE00000BF00BF00BF46F62D602880002600BF2F
:104EF00000BF30460EE6000004010020C80000207C
:104F000070B504460D46002600BF00BFFBF7DEF972
:104F1000064600BF00BF0CB94B4804684A48006809
:104F200084420ED14948007800280ADD00BF00BF46
:104F30003046FBF7CFF900BF00BF46F6635028802C
:104F400070BD0020288094F8360008286CD2DFE875
:104F500000F004313F4D5B5C5D5E00BF3B48007874
:104F6000401C3A49087000BF00BF3046FBF7B2F959
:104F700000BF00BF00BF042084F83600012084F881
:104F80008A002046FEF712FF00BF00BF00BFFBF7FC
:104F90009DF9064600BF00BF2C480078401E2B49F3
:104FA000087000BF00BF3046FBF794F900BF00BF98
:104FB00000BF44E0052084F83600012084F88A0010
:104FC00000BF00BF3046FBF785F900BF00BF36E0E9
:104FD000062084F83600012084F88A0000BF00BF54
:104FE0003046FBF777F900BF00BF28E0072084F8C0
:104FF0003600012084F88A0000BF00BF3046FBF76E
:1050000069F900BF00BF1AE000BF00BF00BF94F8FD
:105010008A00401C84F88A0000BF00BF3046FBF7BE
:1050200059F900BF00BF0AE000BF00BF3046FBF7E0
:1050300051F900BF00BF46F62D60288080E700BF11
:10504000FCF776FC00BF7BE75C0100200401002038
:10505000002108E0064A02EBC100002202608280C3
:10506000C2804A1C91B2034A12889142F2DB704717
:10507000FC3C002004A600082DE9F04F0C46164623
:105080001D46042E1ED1DFF8A091D9F80090A4EBA4
:105090000909A9F1010313F5803F0DD94FF000096B
:1050A000C0F84C90C0F85090C0F81C9047F27E2990
:1050B000A5F80090BDE8F08FC46403F10109C0F8C1
:1050C00050903FE084B3082E25D1D0F8489009EBEA
:1050D0000407DFF85491D9F80090A7EB0909A9F16A
:1050E0000103A34201D2C76406E0DFF83C91D9F87E
:1050F0000090A144C0F84C90DFF82CA1D0F84C905F
:10510000DAF800A0A9EB0A09C0F85090D0F84C904A
:10511000C0F8489016E0DFF81091D9F80090A1444B
:10512000C0F84C9004650DE0FFE74FF00009C0F8AF
:105130004C90C0F85090C0F81C9047F27E29A5F81A
:105140000090B7E7DFF8E4A0BAF800A0D0F84C90E0
:10515000B9FBFAFB0AFB1B991FFA89F8DFF8D0901C
:1051600009EBC802B2F80490B9F1000F0BD14FF06F
:105170000009C0F81490C0F8189010604FF00109B1
:10518000A2F804903EE0116834E0DFF89CA0D1F86A
:105190004C90DAF800A0A9EB0A09C1F85090D0F8B9
:1051A0005090D1F850A0D1450ED9D1F81490B9F152
:1051B000000F01D049691DE04FF00009C0F81490BC
:1051C00081614861002115E0D1F81890B9F1000F14
:1051D00007D14FF00009C0F8189041618861106054
:1051E00007E0D1F818C0C0F818C04161CCF814002D
:1051F000886100210029C8D1B2F8049009F10109A1
:10520000A2F80490B2F80690B2F804A0D14503DAEF
:10521000B2F80490A2F80690C2614FF00009A5F818
:10522000009000BF46E700003C01002004A60008F3
:10523000FC3C002010B5C269BAB1002404651468B2
:10524000844205D14169116039B100248C6104E0C8
:10525000816943694B6103B19961002444618461B0
:10526000C461C4649488641E948010BD002006E06C
:10527000054A02EBC0010022CA80421C90B2034AD8
:1052800012889042F4DB7047FC3C002004A6000822
:105290002DE9F05F4FF0000B00BF00BF00BFFBF730
:1052A00015F8834600BF00BF71480078401C704964
:1052B000087000BF00BF5846FBF70CF800BF00BFE6
:1052C00000BFFBF709FD05466A480068401C6949B4
:1052D00008600846006868490988B0FBF1F201FBE4
:1052E00012001FFA80FA654800EBCA08D8F800409F
:1052F000002782E0002C7FD0D4F8149094F8360078
:10530000082875D2DFE800F00408051B063D0750A9
:1053100000BF00BF00BF6CE05649E06C0968401A4E
:1053200020655449E06C0968884206D1002084F861
:1053300036002046FFF7C8FA00E0012759E04D4942
:10534000E06C0968401A20654A49E06C09688842A7
:1053500015D10020E065A4F86000FBF7BDFC2064D7
:105360002046FEF7F6FA2046FFF7AEFA0020343466
:10537000A07003206070002004F8340900E00127C9
:1053800037E03C49E06C0968401A20653949E06C17
:105390000968884206D1042084F836002046FFF7C9
:1053A00049FF00E0012724E03249E06C0968401A17
:1053B00020653049E06C0968884217D10020E0651B
:1053C000A4F86000FBF788FC20642046FEF7C1FAD1
:1053D0002046FFF72FFF04203434A07003206070B4
:1053E000002004F8340902E006E001E0012700E0B3
:1053F00000BF00BF4C4600E00127002F3FF47AAF0A
:10540000FBF76AFC461B1E480068B04201D21C48EC
:10541000066000BF00BF00BFFAF758FF834600BF19
:1054200000BF13480078401E1149087008460078F4
:10543000A0B914480088002809DD00BF00BF584605
:10544000FAF748FF00BF00BFFEF7DEFC0DE000BF2B
:1054500000BF5846FAF73EFF00BF06E000BF00BF9E
:105460005846FAF737FF00BF00BF00BFBDE8F09F06
:10547000040100203C01002004A60008FC3C0020A0
:1054800040010020C80000201CB500BF0EE001ABA9
:105490006A4600210846FCF715FFBDF8040028B94C
:1054A00003480078012801D1FFF7F2FEEFE7000082
:1054B000BD00002010B58AB0044600201D490860D8
:1054C0001D490860FFF7C4FD1C48006820B947F279
:1054D000122020800AB010BD1948006819490968D7
:1054E000884203D247F213202080F3E71648007861
:1054F0003F2803D347F211202080EBE70B20002147
:1055000005910A46CDE9070406910D4800680F4948
:1055100009680A4B1B68CDE90131CDE903020A484D
:10552000007800230A4A0BA100900F48FCF758FCB2
:1055300000BFCFE73C01002040010020F4A5000897
:10554000FCA50008E8A50008F0A50008F8A50008DB
:105550008954000875432F4F532D494949205469F8
:10556000636B205461736B006445002070B58AB092
:1055700004460020314908603148006840B1314894
:1055800000682F490968B0FBF1F02F49086006E078
:105590002C4800680A21B0FBF1F02B4908602A482A
:1055A00000682A49086000202949086029490860E4
:1055B000002508E0284800EBC5060020B080F080F8
:1055C0003060681C85B2254800888542F2DB24489B
:1055D000006820B947F2473020800AB070BD2148EA
:1055E000006821490968884203D247F24830208088
:1055F000F3E71E4800783F2803D347F24630208067
:10560000EBE70B2000210591CDE907040691084640
:1056100014490968164A1268114B1B68CDE901321A
:10562000CDE90310114800780023124A12A100901E
:105630001748FCF7D5FB00BFCFE70000440100206E
:1056400010A60008ECA50008540100205801002015
:10565000500100204C010020843F002024A60008B7
:1056600014A600081CA60008E8A500080CA600085F
:1056700018A600088957000875432F4F532D494934
:10568000492054696D6572205461736B00000000FD
:1056900028460020F0B50C46022680F82A60012C2E
:1056A00005D12D4F466A3F683E4486610CE0066A8C
:1056B0002EB9294F466A3F683E44866104E0264F72
:1056C000066A3F683E448661244F3F888669B6FB80
:1056D000F7FC07FB1C66B5B2214E06EBC502166847
:1056E00036B90026066146611060012696802CE0DE
:1056F000194F86693F68F61BC661116820E0164F96
:105700008E693F68F61BCE61C669CF69BE4209D972
:105710000E690EB1096913E0002606614161086156
:1057200000210DE04E692EB90026466101614861F5
:10573000106004E04B694361016118614861002118
:105740000029DCD19688761C9680D6889788BE4240
:1057500001DA9688D680F0BD5001002024A600080A
:10576000843F0020002006E0054A02EBC001002231
:10577000CA80421C90B2034A12889042F4DB704700
:10578000843F002024A600081CB500BF53E001ABF5
:105790006A4600210846FCF795FD01A8FCF718F9B8
:1057A000FBF79AFA064624480068401C2249086024
:1057B0000846006821490988B0FBF1F201FB12009C
:1057C0001FFA80FA1E4800EBCA08D8F800404FF0D4
:1057D000000B21E0F4B1D4F810901749A0690968D2
:1057E000884214D1204600F02FF8208D022804D1E1
:1057F00001212046FFF74EFF02E0032084F82A0033
:10580000A56815B12046E168A8474C4604E04FF072
:10581000010B01E04FF0010BBBF1000FDAD0FBF7F9
:105820005BFA871B01A8FCF73FF906480068B842FD
:1058300001D204480760AAE75001002024A600080E
:10584000843F00204C010020F0B5114E3688856958
:10585000B5FBF6F706FB1755ACB20E4D05EBC402CF
:105860001568854205D10169116039B100254D6186
:1058700004E0416903690B6103B15961012580F8B6
:105880002A5000250561456195886D1E9580F0BD03
:1058900024A60008843F002030B585B005460C469C
:1058A0006846FBF748FC02208DF8040000208DF8C4
:1058B000060001208DF8070003208DF80500B5F1E2
:1058C000804F39D10121084600F006FDA4B901211D
:1058D000084600F0F1FC012200217148FBF7FBFBB8
:1058E000012211466E48FBF7F6FB03200090694643
:1058F0006B48FBF7A8FB1FE0012C1DD101210846D6
:1059000000F0DAFC0121022000F0D6FC01220F2178
:105910006348FBF7E0FB012203216248FBF7DBFB56
:10592000E003009069465E48FBF78DFB082000907D
:1059300069465C48FBF787FB5B48854246D10121FD
:10594000022000F0C9FCA4B90121084600F0B4FC13
:10595000022206215248FBF7BEFB022207215048D3
:10596000FBF7B9FBC020009069464D48FBF76BFB85
:105970002CE0012C14D10121022000F09DFC022218
:1059800004214848FBF7A7FB022205214548FBF705
:10599000A2FB3020009069464248FBF754FB15E01B
:1059A000022C13D10121042000F086FC02220621E2
:1059B0003E48FBF790FB022207213C48FBF78BFB9C
:1059C000C020009069463948FBF73DFB38488542C6
:1059D00030D10121042000F07FFCA4B90121022074
:1059E00000F06AFC022206212E48FBF774FB02221B
:1059F00007212C48FBF76FFBC0200090694629481F
:105A0000FBF721FB16E0012C14D10121082000F046
:105A100053FC02220C212748FBF75DFB02220D21DB
:105A20002448FBF758FB4FF440500090694621484A
:105A3000FBF709FB2048854218D10121082000F01E
:105A40004BFC9CB90121084600F036FC02220021E3
:105A50001348FBF740FB022201211148FBF73BFBF7
:105A60000320009069460E48FBF7EDFA00231A4622
:105A70000321284600F0E9FE02A800F04FFF0120B4
:105A8000ADF8100002A9284600F011FF01212846B8
:105A900000F0CFFE47F6FF70686205B030BD000031
:105AA00000000240000402400004004000080240E0
:105AB00000080040000C0240000C004001461C4859
:105AC000814201D2002070471A48814201D2082049
:105AD000F9E71948814201D21020F4E717488142C2
:105AE00001D21820EFE71648814201D22020EAE7D0
:105AF0001448814201D22820E5E71348814201D2AF
:105B00003020E0E71148814201D23820DBE710481D
:105B1000814201D24020D6E70E48814201D248207E
:105B2000D1E70D48814201D25020CCE75820CAE786
:105B3000004000080080000800C0000800000108C4
:105B40000000020800000408000006080000080821
:105B500000000A0800000C0800000E0830B50346DB
:105B60000C461546002206E0184600F007F844F8F7
:105B700022001B1D521CAA42F6D330BD0146086804
:105B8000704700002DE9F04704460E4617464FF0D7
:105B900009080025A946B4F1006F02D304F0030000
:105BA00008B1BDE8F087FBF72BFA0020FBF776F988
:105BB000254604EB87091848854215D211E028468E
:105BC000FFF7DCFF401C58B12846FFF777FF8246FD
:105BD0000221FBF775F98046B8F1090F01D002E008
:105BE0002D1D4D45EBD300BFB8F1090F0CD108E0D6
:105BF00020463168FBF7DCF9092800D003E0241DBA
:105C0000361D4C45F4D300BF0120FBF747F9FBF7E5
:105C1000C5F900BFC5E700000000FF1F4FF080403E
:105C2000406A80B200EE900AF8EE600A9FED051A15
:105C300071EE600AB0EE600A47F6FF704FF08041E7
:105C40004862704700FEFF460848006880B200EED8
:105C5000900AF8EE600A9FED061A71EE600AB0EE47
:105C6000600A47F6FF70014908607047240400404D
:105C700000FEFF460848006880B200EE900AF8EE89
:105C8000600A9FED061A71EE600AB0EE600A47F6F0
:105C9000FF700149086070472408004000FEFF467D
:105CA0000848006880B200EE900AF8EE600A9FEDA6
:105CB000061A71EE600AB0EE600A47F6FF700149FD
:105CC00008607047240C004000FEFF46124890ED2B
:105CD000001AF7EE001A71EE211A4FF0E0208069E9
:105CE00001EE100AB8EE411A31EEC11A0A48D0EDA1
:105CF000001AB7EE002A71EE821A084890ED002AC9
:105D000001EE821AF0EE410A054890ED001AC0EE4D
:105D1000811AB0EE610A704754000020480000204C
:105D20004C00002010B504462046FBF72FFA10BDAA
:105D30002DE9F04180460E4617461C46069D40461A
:105D4000FBF740FB31464046FBF712FB4046FBF7B2
:105D500069FB39464046FBF70BFB4046FBF762FB0D
:105D60004046FBF72FFB701CC1B24046FBF700FB1F
:105D70004046FBF757FB0FE0012D05D100214046BF
:105D8000FBF780FA207004E001214046FBF77AFA25
:105D90002070641C681EC5B2002DEDD14046FBF793
:105DA00029FB0120BDE8F0812DE9F04107460C46B2
:105DB00015461E463846FBF705FB21463846FBF7DD
:105DC000D7FA3846FBF72EFB29463846FBF7D0FAC0
:105DD0003846FBF727FB3846FBF7F4FA601CC1B2E4
:105DE0003846FBF7C5FA3846FBF71CFB002138465E
:105DF000FBF748FA30703846FBF7FCFA0120BDE8A3
:105E0000F0812DE9F04106460F4614461D46304606
:105E1000FBF7D8FA39463046FBF7AAFA3046FBF7CB
:105E200001FB21463046FBF7A3FA3046FBF7FAFAAE
:105E300029463046FBF79CFA3046FBF7F3FA30462A
:105E4000FBF7D8FA012003F075FF0120BDE8F081CF
:105E500010B56FF0040000F0D3FB27480068274915
:105E6000B0FBF1F000EE100AB8EE400A244880EDD5
:105E7000000A90ED000ABCEEC00A10EE100A80B2D3
:105E80004FF47A71484300EE100AB8EEC00A1D487C
:105E900080ED000A184800681849B0FBF1F000EEE8
:105EA000100AB8EE400A184880ED000A174800684A
:105EB000C910B1FBF0F000EE100AB8EE400A12482B
:105EC000D0ED000A20EE200A80ED000A4FF0E0201D
:105ED000006940F002004FF0E02108610A4890EDAF
:105EE000000ABCEEC00A10EE100A486108460069BC
:105EF00040F00100086110BD0000002000127A008F
:105F00004C0000205000002054000020ECA50008A8
:105F1000F0B587B006460F46154605A8FBF70BF906
:105F2000012E01D1BF4C15E0022E01D1BE4C11E073
:105F3000032E01D1BD4C0DE0042E01D1BC4C09E073
:105F4000052E01D1BB4C05E0062E01D1BA4C01E073
:105F500007B0F0BD02208DF818008DF81900002060
:105F60008DF81A0001208DF81B00AE48844233D111
:105F70000121102000F0C0F9ADB90121084600F060
:105F80009BF907220921AD48FBF7A5F807220A2152
:105F9000AA48FBF7A0F84FF4C060059005A9A748F0
:105FA000FBF751F815E0012D13D10121022000F07B
:105FB00083F907220621A248FBF78DF80722114634
:105FC0009F48FBF788F8C020059005A99C48FBF77F
:105FD0003AF800F06DFD03E19348844232D101218B
:105FE000480400F079F9A5B90121084600F064F9E8
:105FF000072202219148FBF76EF8072203218F4800
:10600000FBF769F80C20059005A98C48FBF71BF8F5
:1060100015E0012D13D10121082000F04DF90722D0
:1060200005218848FBF757F8072206218548FBF72A
:1060300052F86020059005A98248FBF704F800F0AB
:1060400065FDCDE0794884424CD10121880400F0FF
:1060500043F9ADB90121022000F02EF907220A21EF
:106060007748FBF738F807220B217548FBF733F820
:106070004FF44060059005A97148FAF7E4FF2EE05F
:10608000012D15D10121042000F016F907220A2163
:106090006D48FBF720F807220B216B48FBF71BF834
:1060A0004FF44060059005A96748FAF7CCFF16E069
:1060B000022D14D10121082000F0FEF8072208214A
:1060C0006048FBF708F8072209215E48FBF703F850
:1060D0004FF44070059005A95A48FAF7B4FF00F054
:1060E0004FFD7DE05248844233D10121C80400F0C5
:1060F000F3F8A5B90121084600F0DEF808220021D6
:106100004E48FAF7E8FF082201214C48FAF7E3FF6E
:106110000320059005A94948FAF795FF16E0012DDF
:1061200014D10121042000F0C7F808220A214648B2
:10613000FAF7D1FF08220B214348FAF7CCFF4FF4BE
:106140004060059005A94048FAF77DFF00F044FC47
:1061500046E03848844223D10121080500F0BCF80C
:10616000D5B901210C2000F0A7F808220C213648EF
:10617000FAF7B1FF082202213248FAF7ACFFA01467
:10618000059005A93048FAF75EFF0420059005A99F
:106190002C48FAF758FF00E000BF00F04DFC1FE06C
:1061A000254884421CD10121202000F0A5F8A5B982
:1061B0000121042000F080F8082206212248FAF785
:1061C0008AFF082207212048FAF785FFC0200590A2
:1061D00005A91D48FAF737FF00E000BF00F0FEFCFC
:1061E00001970020ADF80800ADF80A00ADF80C00EA
:1061F000ADF810000C20ADF80E0001A9204600F00B
:1062000079FD012240F22551204600F04EFD40F27A
:106210002551204600F0F7FC0121204600F002FD48
:1062200000BF95E6001001400044004000480040D7
:10623000004C0040005000400014014000000240AB
:1062400000040240000C02400008024070B5044601
:106250000E46012C01D1124D14E0022C01D1114D3A
:1062600010E0032C01D1104D0CE0042C01D10F4D96
:1062700008E0052C01D10E4D04E0062C01D10D4D96
:1062800000E070BD3146284600F0A3FD00BF80212C
:10629000284600F0D3FC0028F9D000BFF1E7000049
:1062A000001001400044004000480040004C004005
:1062B000005000400014014029B1064A1268024310
:1062C000044B1A6004E0034A12688243014B1A60CF
:1062D000704700003038024029B1064A1268024374
:1062E000044B1A6004E0034A12688243014B1A60AF
:1062F000704700004038024029B1064A1268024344
:10630000044B1A6004E0034A12688243014B1A608E
:106310007047000044380240F0B5002100220024FC
:10632000022500260223324F3F6807F00C0121B1FD
:10633000042905D0082937D105E02E4F076036E043
:106340002D4F076033E02A4F3F1F3F68C7F3805649
:10635000274F3F1F3F6807F03F036EB1264FB7FB43
:10636000F3F7DFF88CC0ACF1040CDCF800C0CCF320
:10637000881C07FB0CF40CE01E4FB7FBF3F7DFF8AB
:1063800070C0ACF1040CDCF800C0CCF3881C07FB37
:106390000CF4174F3F1F3F68C7F301477F1C7D0078
:1063A000B4FBF5F7076002E0124F076000BF00BFC3
:1063B0000F4F3F6807F0F0010909104F7A5C07683A
:1063C000D74047600A4F3F6807F4E051890A0B4FF6
:1063D0007A5C4768D7408760054F3F6807F46041A3
:1063E000490B064F7A5C4768D740C760F0BD000094
:1063F000083802400024F40040787D01800000202D
:1064000010B5FBF711FA4FF4807000F01BF801286B
:1064100002D1000200F008F84FF40030FAF738FD1E
:10642000FBF718FA10BD000081B241F08001044A68
:10643000126802F0800262EA0101014A11607047AD
:106440000C28004010B5014600200022054B1B68B7
:10645000054C03EA040202EA01030BB1012000E04B
:10646000002010BD0C2800407F3F010010B5FBF755
:10647000DBF94FF48060FFF7E5FF012802D18002CD
:10648000FFF7D2FF4FF48000FAF702FDFBF7E2F9C5
:1064900010BD0000012809D10B49096821F44041D1
:1064A000094A11601146096811600CE002280AD0FF
:1064B000032808D10549096821F44021034A1160E5
:1064C000114609681160704700040240000802404C
:1064D00001280BD10D49096821F440410B4A116094
:1064E0001146096841F4804111600EE002280CD089
:1064F00003280AD10649096821F44021044A1160A1
:106500001146096841F4802111607047000402407F
:10651000000802400CB5002001900090344800684B
:1065200040F480303249086000BF3148006800F410
:10653000003000900198401C0190009818B9019813
:10654000B0F5A04FF1D12A48006800F4003010B136
:106550000120009001E0002000900098012846D121
:1065600023484030006840F08050214940310860A5
:106570002048006840F440401E4908601C4808302C
:1065800000681B49083108600846006840F4004074
:1065900008600846006840F4A05008601648091FCB
:1065A0000860081F006840F08070091F086000BF85
:1065B0000F48006800F000700028F9D040F2057024
:1065C0000E4908600A480830006820F003000849B6
:1065D000083108600846006840F00200086000BF0B
:1065E00003480830006800F00C000828F8D10CBD02
:1065F000003802400070004019544007003C02403F
:10660000042808D14FF0E021096941F004014FF05E
:10661000E022116107E04FF0E021096921F0040157
:106620004FF0E0221161704710B5104890ED000A5C
:10663000F7EE000A30EE200A80ED000A90ED000A25
:10664000DFED0B0AB4EEE00AF1EE10FA03DB9FED8A
:10665000090A80ED000A08480078012805D1FBF7F7
:10666000E3F8FCF7C9FAFBF7F5F810BD4800002085
:106670000000804F00000000BD00002010B515484C
:10668000006840F47000134908601348006840F047
:1066900001001149086000200F49083108600E48C8
:1066A00000680E4908400C4908600D48091D086043
:1066B000081F006820F48020091F08600020064998
:1066C0000C310860FFF726FF4FF000600149803968
:1066D000086010BD88ED00E000380240FFFFF6FEC4
:1066E00010300024F0B50C46154600210022068C1F
:1066F0004FF6FE773E400684018B028C4FF60C76F7
:1067000031407E1C06EA03162E4331434FF6F576E0
:10671000324044F00106324301830284F0BDF0B5FB
:106720000C461546002100220026078C4FF6EF7C10
:1067300007EA0C070784018B028C4FF6FF7707EA04
:10674000041640F6FF4739404FF6FF7707EA033754
:1067500039434FF6FF7707EA052739434FF65F774E
:106760003A4046F010073A4301830284F0BDF0B589
:106770000C461546002100220026078C4FF6FF6CC0
:1067800007EA0C070784818B028C4FF6FF7707EA34
:1067900004264FF60C7739404FF6FF7707EA0317C8
:1067A0002F4339434FF2FF573A4046F480773A433C
:1067B00081830284F0BDF0B50C461546002100220D
:1067C0000026078C4EF6FF7C07EA0C070784818BB6
:1067D000028C4FF6FF7707EA043640F6FF47394050
:1067E0004FF6FF7707EA052739434FF6FF7707EAA9
:1067F0000337394345F6FF773A4046F480573A432A
:1068000081830284F0BD000010B5FBF70DF8012173
:10681000054800F03BF8012803D10121024800F0AF
:1068200005F8FBF717F810BD00100040CA430282BC
:10683000704721B1028842F00102028004E0028820
:106840004FF6FE731A4002807047F0B50C461546AD
:106850001E460021002200230189028B038C4FF683
:10686000F877394021434FF6FC473A4040F2011790
:106870003A434FF6DD773B404FF6FF7707EA0617BE
:106880002F433B43018102830384F0BD30B50246B0
:10689000002000230024158A05EA0103958905EAF2
:1068A000010413B10CB1012000E0002030BD70B52F
:1068B00005460C46208850B92389A288618828465D
:1068C000FFF710FFE188284600F031F825E0208826
:1068D00004280AD12389A28861882846FFF71FFF70
:1068E000E188284600F02CF817E0208808280AD113
:1068F0002389A28861882846FFF739FFE188284666
:1069000000F02BF809E02389A28861882846FFF768
:1069100052FFE188284600F029F870BD002101806F
:106920004180012181800021C18001817047028B5B
:106930004FF6F3731A400283028B0A4302837047B7
:10694000028B4FF2FF331A400283028B4FF6FF7324
:1069500003EA01231A4302837047828B4FF6F373D5
:106960001A408283828B0A4382837047828B4FF264
:10697000FF331A408283828B4FF6FF7303EA0123B1
:106980001A4382837047000070B50026FAF74CFF67
:1069900040F225510F4800F05EF9B8B10D48001DD6
:1069A0000088C6B201F0BEFD04460068032182687B
:1069B00020469047054600683146026828469047C1
:1069C00040F22551034800F01EF900BFFAF742FFDC
:1069D00070BD0000004C004008B54FF4A060FAF70D
:1069E000B7FD34208DF8000001208DF80100022051
:1069F0008DF8020001208DF803006846FAF76CFD5F
:106A000008BD000010B5002400BFFAF70DFF40F2EA
:106A10002551084800F01FF940B1064800F0D4F9AC
:106A2000C4B240F22551034800F0EDF8FAF712FF26
:106A300010BD00000050004008B54FF4A060FAF708
:106A400087FD35208DF8000001208DF8010002201F
:106A50008DF8020001208DF803006846FAF73CFD2E
:106A600008BD000070B50026FAF7DEFE0F4800886A
:106A700000F02000B0B10D488088C6B201F052FD90
:106A80000446006800218268204690470546006859
:106A9000314602682846904740F22551034800F0ED
:106AA000B2F800BFFAF7D6FE70BD0000001001403A
:106AB00008B54FF4A060FAF74BFD25208DF80000D3
:106AC00001208DF801008DF802008DF80300684662
:106AD000FAF702FD08BD000010B5002400BFFAF768
:106AE000A3FE40F22551084800F0B5F840B1064831
:106AF00000F06AF9C4B240F22551034800F083F86F
:106B0000FAF7A8FE10BD00000044004008B54FF49D
:106B1000A060FAF71DFD26208DF8000001208DF8F9
:106B200001008DF802008DF803006846FAF7D4FCE6
:106B300008BD000070B50026FAF776FE0F48008801
:106B400000F02000B8B10D48001D0088C6B201F069
:106B5000E9FC044600680221826820469047054609
:106B60000068314602682846904740F225510348A4
:106B700000F049F800BFFAF76DFE70BD0048004014
:106B800008B54FF4A060FAF7E3FC27208DF8000069
:106B900001208DF801008DF802008DF80300684691
:106BA000FAF79AFC08BD000010B5002400BFFAF700
:106BB0003BFE40F22551084800F04DF840B1064830
:106BC00000F002F9C4B240F22551034800F01BF86E
:106BD000FAF740FE10BD00000014014008B54FF464
:106BE000A060FAF7B5FC47208DF8000001208DF871
:106BF000010002208DF8020001208DF80300684694
:106C0000FAF76AFC08BD10B50022002340F66A14AA
:106C1000A14200D100BF0A1201249440A3B2DC4378
:106C2000048010BD21B1828942F40052828104E0C7
:106C300082894DF6FF731A40828170470246002018
:106C4000B1F5007F00D100BF13880B400BB10120CC
:106C500000E00020704770B50246002400230025A4
:106C6000002040F66A16B14200D100BFC1F34215C0
:106C700001F01F03012606FA03F3012D02D19689C4
:106C8000334006E0022D02D1168A334001E0968A95
:106C900033400C12012606FA04F41688344013B16E
:106CA0000CB1012000E0002070BDF0B503460024C7
:106CB00000260025002040F66A17B94200D100BF27
:106CC0001846C1F3421401F01F06012707FA06F522
:106CD000012C01D10C3004E0022C01D1103000E075
:106CE00014301AB107682F43076002E00768AF430A
:106CF0000760F0BD2DE9FF4705460E460024A1467A
:106D000000BFA046B08900B100BF2C8A24F44054D3
:106D1000F08804432C82AC8941F20C608443B08833
:106D200031890843718908430443AC81AC8A24F457
:106D30004074B0890443AC826846FFF7EDFA2048FE
:106D4000854202D01F48854202D1DDF80C9001E057
:106D5000DDF80890A88900F4004040B109EBC900B3
:106D600000EB091031684900B0FBF1F707E009EBCF
:106D7000C90000EB091031688900B0FBF1F764200D
:106D8000B7FBF0F004012009642101FB1078A88909
:106D900000F4004040B1322000EBC800B0FBF1F03D
:106DA00000F00700044308E0322000EB08106421E3
:106DB000B0FBF1F000F00F0004432C81BDE8FF8729
:106DC000001001400014014001468888C0F308000B
:106DD0007047C1F3080282807047000030B58BB065
:106DE0000446002500BFF9F72AFF0AA8FAF776FF44
:106DF0000AAA01210846FAF725FE00BF00BF00BF1E
:106E0000F9F764FA054600BF00BF5C480078401CF3
:106E10005A49087000BF00BF2846F9F75BFA00BF67
:106E200000BF00BF0AA8032100220592CDE9062178
:106E3000089010464FF480711922514BCDE9013270
:106E4000CDE90310042000234E4A4FA10090514881
:106E5000FAF7C6FF0AA8032100220592CDE9062110
:106E6000089010464FF4807119224B4BCDE9013246
:106E7000CDE9031005200023484A49A100904C4861
:106E8000FAF7AEFF0AA8032100220592CDE90621F8
:106E9000089010464FF400713322464BCDE9013281
:106EA000CDE9031006200023434A44A1009048483E
:106EB000FAF796FF0AA8032100220592CDE90621E0
:106EC000089010464FF480711922424BCDE90132EF
:106ED000CDE90310072000233F4A40A1009042481B
:106EE000FAF77EFF0AA8032100220592CDE90621C8
:106EF000089010464FF4807119223C4BCDE90132C5
:106F0000CDE9031008200023394A3AA100903D48FA
:106F1000FAF766FF0AA93C48FDF7F2FF00BF00BF81
:106F200000BFF9F7D3F9054600BF00BF134800784A
:106F3000401E1249087008460078A0B933480088FE
:106F4000002809DD00BF00BF2846F9F7C3F900BFDC
:106F500000BFFCF759FF0DE000BF00BF2846F9F75E
:106F6000B9F900BF06E000BF00BF2846F9F7B2F943
:106F700000BF00BF00BF0BB030BD00000401002007
:106F80002C0E0020E1700008627370207461736B36
:106F900000000000680D0020F0120020A170000821
:106FA000636F6D6D616E64207461736B000000002F
:106FB0002C120020B417002059700008646F5F6B1A
:106FC000696E6D6174696373207461736B00000096
:106FD000F01600207820002059710008696D752096
:106FE0007461736B00000000B41F00203C2500207A
:106FF0001170000863616C635F6F646F6D20746172
:10700000736B000078240020A4040020C800002036
:107010000EB500BF00BF00BF0AA0F9F76DF910E080
:1070200001F044FF04460068C1682046884702A872
:10703000002164230A46CDE900100846FBF7E4FC72
:1070400000BFEDE763616C635F6F646F6D5F7461D8
:10705000736B0D0A000000000EB500BF00BF00BF3B
:107060000AA0F9F749F910E001F020FF0446006892
:1070700081682046884702A800210A230A46CDE9F4
:1070800000100846FBF7C0FC00BFEDE7646F5F6BC4
:10709000696E6D61746963735F7461736B0D0A006F
:1070A00008B500BF08A0F9F727F90CE001F0FEFED3
:1070B000044600684168204688476A460821012046
:1070C000FBF716FC00BFF1E7636865636B5F636FF6
:1070D0006D6D616E645F7461736B0D0A000000007A
:1070E0002DED028B84B000BF9FED170AB0EE408AF1
:1070F00001F018FA044615A0F9F7FEF823E0B7EE00
:10710000000A38EE000AB0EE408A20684169204645
:107110008847B1EE040AB4EEC08AF1EE10FA09DB3A
:107120009FED090AB0EE408A206802220021C36A5E
:107130002046984703A800210A230A46CDE90010FB
:107140000846FBF761FCDAE7000000006273705F3D
:107150007461736B0D0A00000EB500BF00BF00BF65
:107160000AA0F9F7C9F810E001F0A0FE0446006893
:1071700001692046884702A8002101230A46CDE97B
:1071800000100846FBF740FC00BFEDE7696D755F36
:107190007461736B0D0A000070B5044601F0C2F90A
:1071A000054621790068C26B28469047216908444A
:1071B0002061D4E90310461A2069E060304670BDB2
:1071C00070B50446207D58B901F0ACF90646217926
:1071D0000068C26B304690472169084420610AE08C
:1071E00001F0A0F9064621790068C26B304690474D
:1071F0002169081A2061A1682069451A2069A060E8
:10720000284670BD70B5044601F08CF90546217919
:107210000068826B2846904770BD00210161C16003
:107220008160704710B503460C4605480548186054
:107230001C711A751846FFF7F0FF184610BD0000C4
:1072400064A90008C4A700082DE9F04107460E46CE
:1072500014462546E01704EB907082103146024830
:10726000FEF77CFCBDE8F08100F80E0870B506461C
:107270000C4615462CB9002229460120FEF748FE8F
:107280000EE0022C05D1002229460320FEF740FE25
:1072900006E0032C04D1012229460420FEF738FE23
:1072A00070BD00002DE9F04107460E461446254604
:1072B000E01704EB9070821031460248FEF762FC42
:1072C000BDE8F08100F80E0870B506460C4615467C
:1072D0002CB9002229460120FEF71AFE0EE0022CEE
:1072E00005D1002229460320FEF712FE06E0032CFA
:1072F00004D1012229460420FEF70AFE70BD10B514
:10730000044620680121026C2046904710BD000011
:1073100070B506460D461446A5B92CB94FF4004188
:107320005648F9F706FFA7E0012C04D1E1035348C2
:10733000F9F7FDFEA0E0022CF5D1A1034F48F9F7C3
:1073400003FF99E0012D13D124B902214C48F9F72C
:10735000F0FE91E0012C04D102214948F9F7E7FE43
:107360008AE0022CDFD102214548F9F7EDFE83E0E7
:10737000022D13D124B904214148F9F7DAFE7BE04C
:10738000012C04D104213E48F9F7D1FE74E0022C0F
:1073900072D104213A48F9F7D7FE6DE0032D13D1DD
:1073A00024B908213648F9F7C4FE65E0012C04D160
:1073B00008213348F9F7BBFE5EE0022C5CD10821BE
:1073C0002F48F9F7C1FE57E0042D13D124B9E90283
:1073D0002C48F9F7AEFE4FE0012C04D16103294897
:1073E000F9F7A5FE48E0022C46D121032548F9F71C
:1073F000ABFE41E0052D13D124B901212048F9F756
:1074000098FE39E0012C04D101211D48F9F78FFEC7
:1074100032E0022C30D101211948F9F795FE2BE01A
:10742000062D13D124B940211748F9F782FE23E035
:10743000012C04D140211448F9F779FE1CE0022CFC
:107440001AD140211048F9F77FFE15E0072D13D11E
:107450002CB94FF400710C48F9F76BFE0CE0012CCD
:1074600004D161020848F9F762FE05E0022C03D15D
:1074700021020548F9F768FE70BD000000180240BF
:107480000010024000080240001402402DE9F041C3
:1074900005460F4614461E4606E014F8012B2868E0
:1074A0003946C36828469847301EA6F10101CEB27E
:1074B000F3D1BDE8F08170B506460C46154624B9F7
:1074C00029460120FEF7C2FE0CE0022C04D1294619
:1074D0000320FEF7BBFE05E0032C03D12946042060
:1074E000FEF7B4FE70BD000070B505460C4624B929
:1074F00001218807FEF7D0F913E0012C04D1012106
:107500000848FEF7C9F90CE0022C04D10121064815
:10751000FEF7C2F905E0032C03D100210348FEF772
:10752000BBF970BD0004004000080040000C0040A2
:107530002DE9F84381460C4615461E46DDE90878DC
:107540003B46324629462046CDF80080FEF7F0FB48
:10755000C0B2BDE8F8832DE9F04180460C461546DF
:107560001E46069F3B46324629462046FEF71CFC37
:10757000C0B2BDE8F081000010B50446FEF7A6FBDE
:10758000DFED040A80EE201ABCEEC10A10EE100AEC
:1075900010BD000000007A442DE9F04180460C4601
:1075A00015461E46069F3B46324629462046FEF7B4
:1075B00028FC0120BDE8F08170B505460C4634B9C1
:1075C000FEF72CFBBDEEC00A10EE100A70BD012CB8
:1075D00006D1FEF739FBBDEEC00A10EE100AF5E742
:1075E000022C06D1FEF746FBBDEEC00A10EE100AD3
:1075F000ECE7032C06D1FEF753FBBDEEC00A10EEFC
:10760000100AE3E70020E1E710B50446FEF720FC8E
:1076100010BD024611B902F110007047022902D1D3
:1076200002F58E70F9E7032902D102F50A70F4E73A
:107630000020F2E770B50446002500E06D1C48F616
:10764000FF708542FADB2046FFF7DEFF00BF2068AF
:107650004FF4E132002143682046984700BF20469E
:1076600000F004F82046FFF74AFE70BD1CB5044642
:1076700001208DF8040000208DF8060003208DF80D
:10768000050002208DF8070001214020FEF714FEBE
:107690004FF40040009069461148F9F7D4FC0121ED
:1076A0001020FEF709FE0F20009069460D48F9F7FB
:1076B000CAFC01210420FEF7FFFD4FF400500090AA
:1076C00069460948F9F7BFFC01212020FEF7F4FDC7
:1076D0004FF41070009069460448F9F7B4FC1CBDE3
:1076E000001802400010024000080240001402404E
:1076F00010B504462089401C20816089401C6081AF
:10770000A089401CA081E089401CE08120890528D7
:1077100006DB0020208100BFFEF7D8FA84ED010AC5
:107720006089142801DB00206081A089642801DBC6
:107730000020A081E089C82801DB0020E08110BD85
:1077400070B505460C462046FEF7ECFA70BD000009
:107750002DE9FE4306460D461746A846B946424A5D
:1077600007CA8DE80700012408F0FF000DF80400A7
:107770001DF804007D2810DB1DF804007F280CDCB8
:107780001DF804007D38C1B2601C0DF800107F2286
:107790002046611CCCB20DF80020C8F30721601C04
:1077A000C0B204460DF800101DF804007D2810DB5F
:1077B0001DF804007F280CDC1DF804007D38C1B2E0
:1077C000601C0DF800107F222046611CCCB20DF821
:1077D000002009F0FF01601CC0B204460DF8001043
:1077E0001DF804007D2810DB1DF804007F280CDC48
:1077F0001DF804007D38C1B2601C0DF800107F2216
:107800002046611CCCB20DF80020C9F30721601C92
:10781000C0B204460DF800101DF804007D2810DBEE
:107820001DF804007F280CDC1DF804007D38C1B26F
:10783000601C0DF800107F222046611CCCB20DF8B0
:1078400000207E21601CC0B204460DF80010601CB0
:10785000C4B2306823466A460221D0F810C03046D0
:10786000E047BDE8FE83000074A5000810B504469B
:107870000F491048206004F1100002F039FBA0F11C
:10788000100404F58E7002F033FBA0F58E7404F53D
:107890000A7002F02DFBA0F50A749FED070A84ED33
:1078A000010A0020E081A08160812081204610BD76
:1078B0009CA80008E0A70008000000006921016200
:1078C0004FF4A57242624FF4805282620A22C26271
:1078D000C82202630A22C2634FF496624263002206
:1078E0008263FA2202643222426400228264C82245
:1078F000C26445220265014A4265704778563412D7
:1079000070B5044600F00EFE05460068382204F10A
:107910002001C369284698470949606D884203D110
:1079200008A0F8F7E9FC70BD0DA0F8F7E5FC2046CB
:10793000FFF7C4FF204600F01FF800BFF3E7000088
:1079400078563412726561642064617461206672D5
:107950006F6D20494320666C617368200D0A00003A
:1079600066697372742075736520706172616D65EC
:107970007465720D0A00000070B5044600F0D2FD77
:1079800005460068382204F120018369284698479B
:1079900070BD000038B51D48007800F0010090BBB4
:1079A0001A4801F08BFF70B3194C1A48F8F79DFD87
:1079B00005462A4617492046F8F722FE00200346CE
:1079C000154A1649009004F11000F8F7A1FC38217F
:1079D00004F12000F8F7EDFD0020A065E0652066C9
:1079E000182104F16400F8F7E4FD202104F17C0083
:1079F000F8F7DFFD242104F19C00F8F7DAFD00BF61
:107A00000248AFF30080024838BD00006801002042
:107A10004C470020A8A90008B9A90008AFA9000890
:107A200091ED000AB1EE400AD1ED020A90ED021A82
:107A300000EE810AD0ED010A80EE201A82ED001AD4
:107A400091ED000AD1ED020A90ED021A00EE810AD2
:107A5000D0ED010A80EE201A82ED011A7047000075
:107A60002DE9F0412DED088B07460C4615461E46C4
:107A700095ED000AB1EE400AD5ED010A30EE200A7C
:107A8000F0EE000A80EE201AB0EE418A95ED000A71
:107A9000D5ED010A30EE200AD7ED020AB0EE001A49
:107AA00060EE810A80EE201AF0EE418A9FED410AD5
:107AB00068EE000A00EE106AB8EE400A80EE801A06
:107AC000B0EE41AA9FED3B0A68EE800A00EE106A14
:107AD000B8EE400A80EE801AF0EE41AA84ED03AAC7
:107AE0009FED350A84ED040AC4ED05AA9FED320A24
:107AF000B0EE409A9FED300AF0EE409A95ED000A04
:107B0000D5ED010AB4EE600AF1EE10FA3DD0B0EE08
:107B1000680A01F0A8FE20EE080AB0EE409AB0EE26
:107B2000680A01F0ACFEB1EE400A20EE080AF0EE61
:107B3000409AD4ED020AB0EE600A01F094FE20EE05
:107B400009BAD4ED020AB0EE600A01F098FE00EE28
:107B500069BA94ED000A3BEE000A84ED000AD4ED08
:107B6000020AB0EE600A01F08AFE20EE09BAD4EDF6
:107B7000020AB0EE600A01F076FE00EE29BA94ED3A
:107B8000010A3BEE000A84ED010A95ED000AD5EDED
:107B9000010A30EE200AB5EEC00AF1EE10FA05D067
:107BA00094ED020A30EE280A84ED020ABDEC088B3F
:107BB000BDE8F08100007A440000000000BF70477B
:107BC00070B50446217907A0A268F8F795FB00F08C
:107BD000A9FC05462179A2680068436828469847B1
:107BE000012070BD706F72743D256420256C640D9A
:107BF0000A0000002DE9F04104460F4600F092FC17
:107C00000546217900688268284690470646006844
:107C10003946426830469047BDE8F0812DE9F04191
:107C200004460D46164600F07DFC074621790068A3
:107C300033462A46D0F810C03846E047BDE8F08108
:107C4000024B034B03600171826070479CA90008DE
:107C50005CA8000870B505462520465DFFF79AFE32
:107C60000446082E4ED2DFE806F0040B1A22273510
:107C70003D45202322463146284600F068F842E080
:107C8000382205F1270104F12000F8F74DFC2046C9
:107C9000FFF772FE3146284600F048F833E03823FB
:107CA00004F120023146284600F051F82BE031461D
:107CB000284600F03BF826E0D5F82710A165D5F856
:107CC0002B10E165D5F82F0020663146284600F0DC
:107CD0002DF818E0182304F164023146284600F01C
:107CE00036F810E0202304F17C023146284600F0EB
:107CF0002EF808E0242304F19C023146284600F0C7
:107D000026F800E000BF00BF082E0DDA281D50F84D
:107D1000260048B1291D51F8260051F8261009689F
:107D200022460B6831469847012070BD30B5C1B07E
:107D300004460D4600231A462946684601F0BAFC5F
:107D40006946204600F016F8012041B030BDF0B57C
:107D5000C1B004460D4616461F463B4632462946EC
:107D6000684601F0A7FC6946204600F003F80120B0
:107D700041B0F0BD70B504460D46D4F82C0108B9E9
:107D8000012070BDA978091DCAB2D4F82C01016880
:107D90008B68294698470120F3E7082900DB7047E4
:107DA000031D43F8212000BFF9E701460120704779
:107DB00070B504460D4694F8280105285BD2DFE82B
:107DC00000F00316273950005A2D0FD14FF482715D
:107DD00004F12400F8F7EDFB84F8245094F8260110
:107DE000284484F82601012084F8280147E0082D62
:107DF0000ADA2520055594F82601284484F826013E
:107E0000022084F8280102E0002084F8280136E0EE
:107E10002620055594F82601284484F826012620BA
:107E2000005D18B9042084F8280102E0032084F8DA
:107E3000280124E094F82711481C84F8270104F154
:107E40002700455494F82601284484F8260194F824
:107E500027112620005D814202DB042084F82801DE
:107E60000DE0002084F8280194F82601A84201D1F1
:107E7000012070BD03E0002084F8280100BF00BF8E
:107E80000020F6E770B504460D4609490948206010
:107E900004F1240000BFA0F12404C4F82C510020F8
:107EA00084F828012021201DF8F783FB204670BDAF
:107EB00080A9000870A8000870B5044600F032FBE5
:107EC000054600684FF4E1320221436A284698478C
:107ED0000020608170BD000010B5034C034C0460AD
:107EE00041600281037310BD4CA800088CA80008F3
:107EF0007047000070B5044600F014FB05460068AA
:107F00000321026C284690474BA0F8F7F5F920466C
:107F100001F077FA20B94DA0F8F7EEF9002070BD16
:107F200050A0F8F7E9F9204601F044FA322001F0B8
:107F300001FF0021204601F0B9FA322001F0FAFEDB
:107F40000121204601F092FA322001F0F3FE0121D6
:107F5000204601F0CCFA322001F0ECFE0921204647
:107F600001F0B4FA322001F0E5FE42A0F8F7C4F9BE
:107F7000E01D01F04EFB20B944A0F8F7BDF9002048
:107F8000CDE7E01D01F0C8FAE01D01F071FB3220E1
:107F900001F0D0FE0321E01D01F058FB322001F07A
:107FA000C9FE0321E01D01F03FFB322001F0C2FEBB
:107FB0001321E01D01F06CFB322001F0BBFE032118
:107FC000E01D01F014FB322001F0B4FE04F10E00BC
:107FD00001F0F7FB20B933A0F8F78EF900209EE7F7
:107FE00004F10E0001F0C4FB322001F0A3FE0121D8
:107FF00004F10E0001F013FC322001F09BFE06217B
:1080000004F10E0001F0CBFB322001F093FE0021C1
:1080100004F10E0001F0F1FB322001F08BFE012192
:1080200004F10E0001F00CFC322001F083FE23A0CD
:10803000F8F762F9012072E774657374436F6E6E2E
:10804000656374696F6E0D0A000000004144584C6E
:10805000333435204E4F5420464F554E44210D0A9F
:1080600000000000696E697469616C697A650D0AC7
:10807000000000004144584C33343520636F6D706C
:108080006C65746564210D0A000000004954473393
:10809000323035204E4F5420464F554E44210D0A64
:1080A00000000000484D43353838334C204E4F54C3
:1080B00020464F554E44210D0A000000494D5520E1
:1080C000494E49542053554343455353210D0A000B
:1080D00070B52DED048B04460D4604F11A039A1E6B
:1080E000911E204601F098F904F120039A1E911E7A
:1080F000E01D01F052FA04F126039A1E911E04F1CC
:108100000E0001F008FB012104F10E0001F098FBC4
:10811000B4F9160002F08AF841EC190B9FED4A0BF6
:1081200053EC102B01F02AFF41EC180B01F0F4FE88
:108130002860B4F9180002F079F841EC190B9FEDB2
:10814000420B53EC102B01F019FF41EC180B01F01E
:10815000E3FE6860B4F91A0002F068F841EC190B0C
:108160009FED390B53EC102B01F008FF41EC180B7D
:1081700001F0D2FEA860B4F91C0002F057F841ECFF
:10818000190B9FED330B53EC102B02F079F841ECF7
:10819000180B01F0C1FEE860B4F91E0002F046F8C9
:1081A00041EC190B9FED2A0B53EC102B02F068F8F1
:1081B00041EC180B01F0B0FE2861B4F9200002F088
:1081C00035F841EC190B9FED220B53EC102B02F00C
:1081D00057F841EC180B01F09FFE6861B4F92200DA
:1081E00002F024F841EC190B9FED1B0B53EC102B04
:1081F00002F046F841EC180B01F08EFEA861B4F9CC
:10820000240002F013F841EC190B9FED130B53EC13
:10821000102B02F035F841EC180B01F07DFEE861FF
:10822000B4F9260002F002F841EC190B9FED0A0B9D
:1082300053EC102B02F024F841EC180B01F06CFE0B
:108240002862BDEC048B70BD9A999999999939402F
:10825000578B6E247BE4533F713D0AD7A370ED3FEB
:108260009FED080A80ED040A9FED060A80ED050ADD
:108270009FED040A80ED060A9FED020A80ED070AD1
:10828000704700000000000080ED000AC0ED010A08
:1082900080ED021A01EE901AF8EE611AC0ED031A91
:1082A00070470000F0EE400A9FED401AB0EE410A20
:1082B000016A91ED001A80ED041A90ED051AD0EDD7
:1082C000041A01EEA01A80ED051A90ED041AD0ED03
:1082D000071A31EE611AC1EE201AC0ED061A90EDB0
:1082E000041A80ED071A90ED011AB5EEC01AF1EEEE
:1082F00010FA18D090ED031AD0ED011A81EE212A60
:10830000B1EE421AD0ED051AB4EEE11AF1EE10FA10
:1083100009DD90ED031AD0ED011A81EE212AB1EEAC
:10832000421A80ED051A90ED031A90ED012AC1EE74
:10833000021A90ED051AF4EEC11AF1EE10FA07D206
:1083400090ED031AD0ED011A81EE212A80ED052A65
:1083500090ED041AB1EE411AD0ED001A21EE211A67
:10836000B0EE410A90ED031AB1EE411AB4EEC01A14
:10837000F1EE10FA0ADD90ED031AB1EE411AF7EEB4
:10838000001A31EE211AB0EE410A0EE090ED031A08
:10839000B4EEC01AF1EE10FA07D290ED031AF7EE20
:1083A000001A31EE611AB0EE410A70470000000079
:1083B0002DE9F0412DED088B04460F461546B0EE31
:1083C000408AF0EE608AB0EE419A1E4627626562EE
:1083D00084ED008AC4ED018A84ED029A304601F0F2
:1083E0003CFF41EC1B0B9FED090B53EC102B01F0F4
:1083F00047FF41EC1A0B01F08FFDE0602046FFF7CC
:108400002FFF2046BDEC088BBDE8F0810000000086
:108410000000F03F2DE9FC4704460F469046994680
:10842000DDE90A5A0020019001A8009020684B461F
:1084300042463946D0F84CC02046E047BAF1000F1A
:1084400005D00120A8409DF80410084305E0012054
:10845000A8409DF8041021EA0000C0B201909DF8E8
:108460000400009020684B4642463946D0F844C08C
:108470002046E047064601A8009020684B46424649
:108480003946D0F84CC02046E0473046BDE8FC876E
:108490002DE9FF4F83B0044689469246DDE9107509
:1084A000129E02A800902068D0F84CC0524649465F
:1084B0002046069BE04788B30120A840401E791B58
:1084C000491C884000F0FF08781B401C06FA00F0A9
:1084D000C6B206EA08069DF8080020EA08000290E5
:1084E0009DF80800304302909DF808000090206835
:1084F000D0F844C0524649462046069BE047834692
:1085000002A800902068D0F84CC052464946204648
:10851000069BE047584607B0BDE8F08FFFE7002014
:10852000F9E7000010B50848007800F0010048B9EC
:10853000054801F0C3F928B10448FFF797F902484C
:10854000AFF30080014810BD14000020700100202E
:1085500070B50446002509E004F10C0252F825002C
:1085600052F825201268516888476D1C022DF3DBF4
:10857000182104F13C00F8F71CF8FFF70BFA00F1A2
:10858000640518212846F8F714F870BD2DE9F04766
:108590002DED048B0446B348007800F0010090B93B
:1085A000B04801F08BF970B1002342F21072194605
:1085B000AD48FFF791FC0546AC4AAD49F7F77EFFA1
:1085C000A848AFF30080AB48007800F0010058B92C
:1085D000A84801F073F938B100221146A648FEF709
:1085E00021FEA448AFF30080A448007800F0010009
:1085F000F0BBA24801F062F9D0B3FFF7CBF990EDE0
:108600000E0AF8EE409AFFF7C5F990ED0F0AB8EEA2
:10861000400AC9EE800AB0EE608AFFF7BBF990ED20
:108620000D0AF8EE409AFFF7B5F990ED0F0AB8EE93
:10863000400AC9EE800AF0EE608AFFF7ABF990EDD0
:108640000C0AF8EE409AFFF7A5F990ED0F0AB8EE84
:10865000400AC9EE800AB0EE609A42F21073B0EEA2
:10866000481AF0EE680AB0EE490A04F1240200E06C
:1086700007E004F11C018248FFF79AFE7F48AFF340
:1086800000808048007800F0010090B97D4801F03A
:1086900015F970B1002342F2107201217A48FFF7F8
:1086A0001BFC0546714A7249F7F708FF7548AFF39E
:1086B00000807648007800F0010058B9734801F056
:1086C000FDF838B1002201217148FEF7ABFD6F487B
:1086D000AFF300806F48007800F00100F0BB6D48F8
:1086E00001F0ECF8D0B3FFF755F990ED0E0AF8EE73
:1086F000409AFFF74FF990ED0F0AB8EE400AC9EE25
:10870000800AB0EE608AFFF745F990ED0D0AF8EEA9
:10871000409AFFF73FF990ED0F0AB8EE400AC9EE14
:10872000800AF0EE608AFFF735F990ED0C0AF8EE5A
:10873000409AFFF72FF990ED0F0AB8EE400AC9EE04
:10874000800AB0EE609A42F21073B0EE481AF0EE72
:10875000680AB0EE490A04F1280200E007E004F1DB
:1087600020014D48FFF724FE4A48AFF300803E4801
:1087700060604148E060424860614349A16044490B
:10878000216145494548A161007800F00100E0BB46
:10879000424801F093F8C0B3414DFFF7FBF8D0F821
:1087A0002090484601F059FD41EC190B9FED3D0B1F
:1087B00053EC102B01F064FD41EC180B01F0ACFB05
:1087C0000646FFF7E7F8D0F82490484601F045FD4B
:1087D00041EC190B9FED330B53EC102B01F050FDC6
:1087E00041EC180B01F098FB0746304828606E609A
:1087F000AF6000BF2E48286000BFA8461B4A2D4925
:108800004046F7F75BFE254800E001E0AFF300804B
:1088100023486063002509E004F10C0252F82500AA
:1088200052F825201268116888476D1C022DF3DB71
:108830000D48FFF741FB002084F83800182104F1AF
:108840003C00F7F7B6FE0020E06120626062A062A3
:108850006065D622184919A0F7F74EFDBDEC048BD0
:10886000BDE8F087380000204829002000000008FB
:10887000F17E00083400002058290020300000203C
:10888000702900202C0000209829002028000020BA
:10889000A829002024000020C0290020200000205A
:1088A000E8290020FCA9F1D24D62403FF8A8000859
:1088B0003CA80008BD7B000880A5000866756E3ADC
:1088C000257320206C696E653A2564200D0A00002E
:1088D00010B504462048007800F0010060B91E4839
:1088E00000F0ECFF40B14FF4E13203211B48FFF7E9
:1088F000A7F91948AFF300801948007800F001008B
:1089000050B9174800F0DAFF30B114491548FFF7A5
:10891000B9FA1348AFF300801048E06211482063B1
:10892000E06A026811688847206B0268116888470E
:10893000206B016822464B6801219847206B016833
:1089400022464B6803219847206B016822464B68FA
:108950000421984710BD000040000020F4290020A9
:108960003C000020002A00202DE9F04F2DED068B61
:1089700085B0044602224FF4E1310320FDF7C8FA26
:1089800089480021016041608160884800788749FA
:1089900008700020804607460646054600BF00BF17
:1089A00000BF00BF94F83800D8B94FF0000910E0BC
:1089B00004F1140151F82900FFF752FC04F10C02F4
:1089C00052F8290052F829201268D168884709F125
:1089D0000109B9F1020FEBDB05B0BDEC068BBDE878
:1089E000F08FFFF79FFD83460068016A584688476D
:1089F0006F490968A0EB0109FEF7CCFFC06A814509
:108A00007ED3FFF78FFD04900068016A04988847C1
:108A1000674908604FF0000914E004F10C0252F8B5
:108A2000290052F829201268D168884700EE100A00
:108A3000B8EEC00A04F1240000EB890080ED000AC2
:108A400009F10109B9F1020FE7DB012002900020D2
:108A500019E004F11C0101EB800191ED000AB5EE73
:108A6000C00AF1EE10FA0AD104F1240101EB8001F1
:108A700091ED000AB5EEC00AF1EE10FA02D0002125
:108A8000029102E0401C0228E3DB002001900298E2
:108A900060B1002004E0002101AA22F81010401C5F
:108AA0000228F8DB002084F838002DE04FF00009A0
:108AB00025E0FEF76FFFC06A009001F0CEFB41ECAD
:108AC0001A0B9FED3C0B53EC102B01F0D9FB41EC42
:108AD000190B01F021FA08EE100A04F1140151F803
:108AE0002900B0EE480AFFF7DDFBBDEEC00A10EE2C
:108AF000100A00B201A921F8190009F1010900E0EA
:108B000050E0B9F1020FD4DB4FF000091FE0FEF78F
:108B100041FF7C3004F11C0101EB890191ED000A59
:108B2000BDEEC00A10EE101A40F82910FEF732FF11
:108B30008C3004F1240101EB890191ED000ABDEEB6
:108B4000C00A10EE101A40F8291009F10109B9F114
:108B5000020FDCDBFFF7E6FC8246BDF90620BDF91B
:108B600004100068836A50469847FFF7DBFC0390C7
:108B70000068016A03988847616DA0EB0109FEF760
:108B800009FF006C81450CD9002008E09FED0B0A1D
:108B900004F11C0101EB800181ED000A401C022858
:108BA000F4DB00BF00BF17E73C29002018000020BD
:108BB0001C000020FCA9F1D24D62503F00000000D3
:108BC00070B50446FEF7E6FE00F19C052946A06D4F
:108BD000FFF77EFA70BD38B5044600200090E06AC9
:108BE00001684A686946904750B1206B01688A68FD
:108BF0009DF80010904718B1206B0268D168884733
:108C000038BD70472DE9F0472DED0A8B86B004463C
:108C1000FEF7C0FE856DFEF7BDFEB0F8440000B261
:108C20004042854203DDFEF7B5FE856D05E0FEF7A7
:108C3000B1FEB0F8440000B24542FEF7ABFEB0F81A
:108C4000440000B2854215DAFEF7A4FE856DFEF7FA
:108C5000A1FEB0F8440000B24042854203DDFEF7B9
:108C600099FE806D0BE0FEF795FEB0F8440000B26F
:108C7000404204E0FEF78EFEB0F8440000B207B2B6
:108C8000FEF788FEC56DFEF785FEB0F8480000B21D
:108C90004042854203DDFEF77DFEC56D05E0FEF72F
:108CA00079FEB0F8480000B24542FEF773FEB0F816
:108CB000480000B2854215DAFEF76CFEC56DFEF77E
:108CC00069FEB0F8480000B24042854203DDFEF77D
:108CD00061FEC06D0BE0FEF75DFEB0F8480000B22B
:108CE000404204E0FEF756FEB0F8480000B20FFA2A
:108CF00080F8FEF74FFE056EFEF74CFEB0F84C0014
:108D000000B24042854203DDFEF744FE056E05E0F9
:108D1000FEF740FEB0F84C0000B24542FEF73AFEC6
:108D2000B0F84C0000B2854215DAFEF733FE056E4E
:108D3000FEF730FEB0F84C0000B24042854203DD41
:108D4000FEF728FE006E0BE0FEF724FEB0F84C00A4
:108D500000B2404204E0FEF71DFEB0F84C0000B245
:108D60000FFA80F9384601F061FA41EC190B9FEDDA
:108D7000450B53EC102B01F001F941EC180B01F0FD
:108D8000CBF80390404601F051FA41EC190B9FEDEE
:108D90003D0B53EC102B01F0F1F841EC180B01F0F6
:108DA000BBF80490484601F041FA41EC190B9FEDE5
:108DB000350B53EC102B01F0E1F841EC180B01F0EE
:108DC000ABF80590002001900290606B016801AA49
:108DD0000B6803A9984700253CE0FEF7DBFD808D7A
:108DE0000FFA80FA504601F021FA41EC1A0BFEF717
:108DF000D1FD008D00B200EE100AB8EEC00A01A845
:108E000000EB8500D0ED000A20EE200A10EE10AA3B
:108E1000504601F033FB41EC1C0B9FED1C0B53EC57
:108E2000102B01F0ABF841EC1B0B53EC1A2B01F0AB
:108E300027FA41EC190B9FED170B53EC102B01F0A7
:108E40001FFA41EC180B01F067F804F11C0141F81E
:108E500025006D1C022DC0DB4B46424639460FA053
:108E6000F7F74AFAFFF75EFB06460068016A3046EC
:108E700088476065012084F8380006B0BDEC0A8B95
:108E8000BDE8F0870000000000005940182D445450
:108E9000FB211940FCA9F1D24D62503F76783D2567
:108EA000642025642025640D0A00000010B50948DF
:108EB000007800F0010058B9064800F0FFFC38B116
:108EC000054806490649016000BF0248AFF300802B
:108ED000014810BD6C0100200C48002040A900088A
:108EE00020A900082DE9F14F8EB0FFF71BFB0446C7
:108EF0000068016820468847FEF74CFD0546FEF7EE
:108F0000FFFCFEF747FDC56CFEF744FD866CFEF7DF
:108F100041FD476CFEF73EFDD0F84080FEF73AFD7C
:108F2000D0F83C90FEF736FDD0F838A0FEF732FDC1
:108F3000D0F834B0FEF72EFD006B0D90FEF72AFD41
:108F4000C06A0C90FEF726FD806A0B90FEF722FDAA
:108F5000406A0A90FEF71EFD006ACDE90587CDE95B
:108F6000076509900D98CDE902BACDF810900190EF
:108F70000C9800900FA009A90EC9F7F7BDF91BA026
:108F8000F7F7BAF90E9800F045F91BA0F7F7B4F916
:108F90000E98FFF7FBFA1CA0F7F7AEF90E98FFF753
:108FA00097FC0E98FFF72DFE1BA0F7F7A5F90FB061
:108FB000BDE8F08F526F626F74506172616D6574BD
:108FC0006572733A20256420256420256420256479
:108FD0002025642025642025642025642025642024
:108FE00025642025642025640D0A0000696E6974DB
:108FF0005F696D750D0A0000696E69745F6D6F744D
:109000006F720D0A00000000696E69745F7472610E
:109010006E730D0A000000007069626F7420737433
:1090200061727475700D0A002DE9F04F2DED048BFF
:109030008FB004460E46012E04D0032E7ED0042E9F
:109040007DD1BBE0FEF7A6FCC56CFEF7A3FC876CE8
:10905000FEF7A0FCD0F84480FEF79CFCD0F84090CE
:10906000FEF798FCD0F83CA0FEF794FCD0F838B09E
:10907000FEF790FC406B0E90FEF78CFC006B0D90A1
:10908000FEF788FCC06A0C90FEF784FC806A0B90A7
:10909000FEF780FC406A0A90FEF77CFC006ACDE98E
:1090A0000598CDE907750990DDE90D01CDE903BA11
:1090B000CDE901010C98009046A009A90EC9F7F767
:1090C0001BF9002541E0FEF765FC90ED0E0AF8EE75
:1090D000409AFEF75FFC90ED0F0AB8EE400AC9EE29
:1090E000800AB0EE608AFEF755FC90ED0D0AF8EEAE
:1090F000409AFEF74FFC90ED0F0AB8EE400AC9EE19
:10910000800AF0EE608AFEF745FC90ED0C0AF8EE5E
:10911000409AFEF73FFC90ED0F0AB8EE400AC9EE08
:10912000800AB0EE609A04F1140151F8250042F271
:109130001071B0EE481AF0EE680A01E03AE041E042
:10914000B0EE490AFFF7A0F86D1C022DBBDB656B82
:10915000FEF720FCD0F82090484601F07EF841EC64
:10916000190B9FED2A0B53EC102B01F089F841EC01
:10917000180B00F0D1FE0746FEF70CFCD0F8249047
:10918000484601F06AF841EC190B9FED200B53ECB7
:10919000102B01F075F841EC180B00F0BDFE804675
:1091A0006F60C5F8088000BFFEF7F4FB0546FEF7C8
:1091B000E3FB08E02046FFF7CBF904E02046FFF789
:1091C00021FD00E000BF00BF0FB0BDEC048BBDE887
:1091D000F08F0000526F626F74506172616D657440
:1091E0006572733A20256420256420256420256457
:1091F0002025642025642025642025642025642002
:1092000025642025642025640D0A0000FCA9F1D204
:109210004D62403F70B504460F48007800F00100F1
:10922000A0B90D4800F04AFB80B10C4D284600F073
:1092300070F90546C01D00F03AFAC51FC01D00F0C8
:109240000FFBA0F10E050448AFF300800348A065B2
:10925000A06DFEF74FFE70BD44000020302B0020B3
:1092600070B52DED0E8B82B0044600200090019069
:1092700000253EE0FEF78EFB866A304600F0EDFFEB
:1092800041EC190BFEF786FB066A304600F0E5FF5D
:1092900041EC1C0B04F10C0252F8250052F8252079
:1092A000126811698847064600F0C0FF41EC1E0BAA
:1092B0009FED3B0B53EC102B00F0E2FF41EC1D0B3C
:1092C00053EC1C2B00F0DCFF41EC1B0B9FED360B2D
:1092D00053EC102B00F0D4FF41EC1A0B53EC192B7C
:1092E00000F04CFE41EC180B00F016FE4DF8250086
:1092F0006D1C022DBEDB606B016864236A464D68FD
:1093000004F13C01A847FEF745FB94ED120ADFED9E
:10931000280A20EE200ABDEEC00A80ED190AFEF7E9
:1093200039FB94ED130ADFED220A20EE200ABDEE90
:10933000C00A80ED1A0AFEF72DFB94ED140ADFED4A
:109340001C0A20EE200ABDEEC00A80ED1B0AFEF7C3
:1093500021FB94ED0F0ADFED160A20EE200ABDEE88
:10936000C00A80ED1C0AFEF715FB94ED100ADFED34
:10937000100A20EE200ABDEEC00A80ED1D0AFEF79D
:1093800009FB94ED110ADFED0A0A20EE200ABDEE7A
:10939000C00A80ED1E0A02B0BDEC0E8B70BD00004D
:1093A000182D4454FB210940FCA9F1D24D62503FD5
:1093B0000000C842F8B50446FFF7B4F8054600209F
:1093C0000090227828682D230321466C2846B04758
:1093D0000121204600F06AF80121204600F056F8ED
:1093E000F8BDF8B50446FFF79DF80546601C0090EF
:1093F0002278286800230321C66C2846B04760788D
:10940000F8BD10B504462046FFF7EBFFE52801D173
:10941000012010BD0020FCE72DE9FC4104460D466B
:1094200016461F46FFF77EF880460621601CCDE9F0
:1094300000012278D8F8000032230321D0F850C070
:109440004046E0476178A07841EA002000B22880D9
:10945000E178207941EA002000B230806179A0797A
:1094600041EA002000B23880BDE8FC817CB50446AA
:109470000D46FFF757F806460320CDE90005227890
:10948000312301463046FEF7C5FF7CBD7CB504465E
:109490000D46FFF747F806460320CDE90005227880
:1094A0002D2301463046FEF7B5FF7CBD7CB5044652
:1094B0000D46FFF737F806460420CDE9000522786F
:1094C0002D2303213046FEF7A5FF7CBDFEB50446E3
:1094D0000D46FFF727F8064604200321CDE90105D4
:1094E000009122782C233046FEF7D2FFFEBDFEB558
:1094F00004460D46FFF716F8064602200121CDE985
:10950000010500912278312303213046FEF7C0FF88
:10951000FEBDA6210170704710B504460321204608
:1095200000F094F80121204600F061F810BD2DE90B
:10953000FE4F0446FEF7F6FF06464FF0030894F888
:1095400000904FF0000A06273D4604F1010B01A8E8
:109550000090306853464A464146D0F84CC03046E9
:10956000E0470290A8B10121A940491E7A1B521C74
:109570009140C8B29DF8041001400191791B491C2B
:109580009DF804200A4101929DF804108BF8001008
:1095900000BF00BF6078BDE8FE8F2DE9FC410446A6
:1095A0000D4616461F46FEF7BDFF80460621601C8D
:1095B000CDE900012278D8F800001D230321D0F85E
:1095C00050C04046E047A078617840EA012000B2F0
:1095D00028802179E07841EA002000B23080A1792A
:1095E000607941EA002000B23880BDE8FC81FEB518
:1095F00004460D46FEF796FF064603200221CDE9FC
:109600000105009122783E2301463046FEF740FFD7
:10961000FEBD10B504462046FFF789FF342801D16E
:10962000012010BD0020FCE7FEB504460D46FEF704
:1096300079FF064603200221CDE901050091227839
:10964000162301463046FEF723FFFEBDFEB5044655
:109650000D46FEF767FF064602200421CDE901050D
:1096600000912278162303213046FEF711FFFEBD3C
:109670007CB50446FEF756FF054601200721CDE9DB
:10968000001022783E2303212846FEF7C3FE7CBD4E
:10969000F8B504460D46FEF745FF064600952278CC
:1096A000006815230321476C3046B847F8BDD02128
:1096B000017070472DE9F0470446894616461D465D
:1096C0005A20207084F8019084F80351A57000207E
:1096D00084F802012EB125B12A463146E01CF6F786
:1096E00023FF27464FF0000800BF08E094F802016E
:1096F00017F80810084484F8020108F10108A0785E
:10970000C01C4045F2D894F80211A078C01C39540E
:109710002046BDE8F0872DE9FC4104460D4616467B
:109720001F46FEF7FFFE80460621601CCDE90001C2
:109730002278D8F8000003231946D0F850C04046DC
:10974000E047E079012805D1A078617840EA01205E
:1097500000B22880A179607941EA002000B230800F
:109760002179E07841EA002000B23880BDE8FC8130
:10977000F8B50446FEF7D6FE054670200090227824
:10978000286800230321466C2846B0470121204663
:1097900000F045F80121204600F052F8F8BDFEB572
:1097A00004460D46FEF7BEFE064603200421CDE921
:1097B000010500912278002301463046FEF768FE3D
:1097C000FEBD7CB50446FEF7ADFE05460321601CD8
:1097D000CDE90001227828680A23066D2846B047A3
:1097E0006078482807D1A078342804D1E07833285D
:1097F00001D101207CBD0020FCE7FEB504460D46EA
:10980000FEF790FE064602200621CDE901050091F3
:109810002278002303213046FEF73AFEFEBDF8B55C
:1098200004460D46FEF77EFE06466807000E0090D1
:109830002278306801230321476C3046B847F8BDD1
:10984000F8B504460D46FEF76DFE064600952278F3
:10985000006802230321476C3046B847E571F8BD24
:109860003C210170704710B52DED028BB0EE408A9F
:10987000B0EE480A00F02EF8BDEC028B10BD10B51A
:109880002DED028BB0EE408AB0EE480A00F0CAF827
:10989000BDEC028B10BD4100080218BF04200A0E67
:1098A00018BF40F001004FF07F4232EA010108BFCB
:1098B00040F00200012808BF05207047016809B187
:1098C0000020704701210160084670470020F6F72C
:1098D000C4BF000010EE101A08B5444A6846B2EB47
:1098E000410F28D94FF0E640B0EB410F94BF002064
:1098F0004FF0FF3000900098002861DB60EE000A16
:1099000010F0010F45D010F0020FDFED391A9FED76
:10991000391A00EEE11ADFED381A40EE811A21EE15
:10992000A01AF0EE400A40EE010A08BFF1EE600A0C
:10993000B0EE600A08BD314B21F0004293423CD9A1
:1099400011F0004FDFED2E0A20EE201ADFED2D0A78
:1099500019BF31EE601A71EE200A31EE201A71EE55
:10996000600ABDEEE01A11EE100A9FED271A00F012
:10997000030000EEC10A9FED251A009000EEC10A17
:109980009FED231A00EEC10A9FED221A00EEC10AD4
:10999000B1E79FED211A9FED210A10F0020F00EEB2
:1099A000810A9FED1F1A00EE801AB7EE000A00EE42
:1099B000810A18BFB1EE400A08BD00F00FF99AE71E
:1099C00010EE100A4000B0F17F4F3CBFB7EE000A26
:1099D00008BD07D14FF00100F6F778FEBDE808405A
:1099E00000F0ECB8BDE8084000F0E4B8B61F927E85
:1099F000336D4C39DA82083CA0AA2ABE490E49468A
:109A000083F9223F0000004B0000C93F00A0FD3950
:109A10000020A2331A61342CB93AB2BACA9F2A3D47
:109A2000DDFFFFBE00B510EE101A2DED028B81B0E8
:109A3000524A6846B2EB410F2ED94FF0E640B0EBE8
:109A4000410F94BF00204FF0FF3000900098B0EE1F
:109A5000408A00286ADB10F0010F4BD068EE080A3C
:109A60009FED471A9FED470A00EE810A9FED461AC7
:109A700010F0020F00EE801AB7EE000A00EE810A25
:109A800002BF01B0BDEC028B00BD00BF01B0B1EE62
:109A9000400ABDEC028B00BD3C4B21F000429342DA
:109AA00041D911F0004FDFED3A0A20EE201ADFED28
:109AB000390A19BF31EE601A71EE200A31EE201A10
:109AC00071EE600ABDEEE01A11EE100A9FED321A37
:109AD00000F0030000EEC10A9FED301A009000EE86
:109AE000C10A9FED2F1A00EEC10A9FED2E1A00EE5B
:109AF000C10AABE728EE080A9FED2B1ADFED2B0A0F
:109B000010F0020F40EE410A9FED291A00EE201AD4
:109B100061EE000AB0EE480A08EE200AB6D101B0A4
:109B2000BDEC028B00BD00F059F88FE718EE100A6B
:109B30004000B0F17F4F0DD218EE100AFFF7ABFED8
:109B4000042808BF00F042F8B0EE480A01B0BDECAE
:109B5000028B00BD09D10120F6F7B8FD01B0BDECC4
:109B6000028B5DF804EB00F029B801B0B0EE480AB2
:109B7000BDEC028B5DF804EB00F01CB8B61F927EC2
:109B8000B93AB2BACA9F2A3DDDFFFFBE490E494627
:109B900083F9223F0000004B0000C93F00A0FD39BF
:109BA0000020A2331A61342C336D4C39DA82083C20
:109BB000A0AA2ABE30EE000A70470000DFED020ABC
:109BC00080EEA00A70470000000000009FED020A2E
:109BD00020EE000A70470000000000102DE9F0019F
:109BE0004FF07F42B2EB410F9FBF4FF0FF3101605A
:109BF000BDE8F00170474FF0004242EA0123C1F393
:109C0000C752783A551112F01F0C434CCCF1200684
:109C10007C44C1F3C752A2F178024FEA621204EB0E
:109C2000820254F8254008BFD2E9015612D0556887
:109C300004FA0CF425FA06F73C43976805FA0CF58C
:109C400027FA06F8D26807FA0CFCF24045EA080544
:109C50004CEA0206A4FB034CA5FB0352A6FB0363DC
:109C60001D449D4234BF012600261319334416B10A
:109C7000934202D903E0934201D2012200E0002284
:109C8000624402F1200C9206DC0C42EA443200EEFF
:109C9000102A5B03DFED210AF8EEC01A00EE103A3D
:109CA0004FEA9C1C11F0004FB8EE400AC0F800C00B
:109CB00020EE201A00EE105ADFED190AB8EE400A25
:109CC00020EE200A71EE810A70EE800A10EE902AD2
:109CD00002F500626FF30B0200EE902A70EEE11ABB
:109CE00031EEC11ADFED101A30EE411A9FED0D0A68
:109CF00020EE800A01EE210A9FED0C1A00EE810A87
:109D000004BFBDE8F0017047CCF180510160BDE8AF
:109D1000F001B1EE400A7047880B000000000036E9
:109D20000000802C22AAFD29DB0FC92F0000C92FBB
:109D300000BF704710B5002108E048F2203200E073
:109D400000BF131EA2F10102FAD1491C8142F4DBCB
:109D500010BD10B5002107E0192200E000BF131E5E
:109D6000A2F10102FAD1491C8142F5DB10BD0000CD
:109D700070B504460D4600BF40210548FCF75EFF64
:109D80000028F9D0E1B20248FDF723F8204670BD63
:109D9000001001408AB00024FFF788F80546FFF75D
:109DA000A1F809A8F7F766FC00BF00BF00BFF6F7EF
:109DB0008DFA044600BF00BF2B480078401C2A499A
:109DC000087000BF00BF2046F6F784FA00BF00BF4E
:109DD00000BF09A8032100220592CDE906210890C1
:109DE00010464FF400713322204BCDE90132CDE90A
:109DF0000310032000231E4A1EA100902048F7F7FD
:109E0000EFFF00BF00BF00BFF6F760FA044600BFD7
:109E100000BF15480078401E1349087008460078B6
:109E2000A0B918480088002809DD00BF00BF2046FF
:109E3000F6F750FA00BF00BFF9F7E6FF0DE000BFEC
:109E400000BF2046F6F746FA00BF06E000BF00BF9D
:109E50002046F6F73FFA00BF00BF00BF09A8F7F79A
:109E60006DFE00BFFEE70000040100206805002031
:109E7000DD6D00087374617274207461736B00008F
:109E8000A4040020C80000200246B2F80601B2F87F
:109E90000831984201D100207047B2F80631581CB1
:109EA000A2F80601101DC05C0870B2F80601FF2878
:109EB00002DD0020A2F806010120EDE70246B2F81B
:109EC0000801401CB2F80631984201D100207047C9
:109ED000B2F80831581CA2F80801101DC154B2F89C
:109EE0000801FF2802DD0020A2F808010120EEE7AA
:109EF00010B504460648074820604FF48070A4F867
:109F000004010146201DF6F754FB204610BD000059
:109F100008A900084CA9000821F00042A2F16052F3
:109F2000B2F5801F01F0004328BFD2F17F6C0BD93E
:109F30005FEA001C43EAC20242EB507018BF704750
:109F400028BF20F001007047B2F5801FBCBF184643
:109F500070474FEA410C1CF5001F02D2084600F082
:109F600003BB70B500F036FA00000089FFF7F6BFBA
:109F70004FF00040A0F58000704700002DE9C0417F
:109F800030B4DFF8A0C23CEA111418BF3CEA131445
:109F900000F0EC8081EA03051CEA111444EAD57450
:109FA00018BF1CEA131500F0C780A4EB05044FF09E
:109FB000004545EAC12145EAC32341EA505143EA3D
:109FC000525304F17F74994204F500344FEAC020E3
:109FD0004FEAC22208BF904200F09C804FEA13650E
:109FE0000FF24016765D4FEA134506FB05F7C7F101
:109FF000807706FB07F74FEAD737A7FB036876425F
:10A00000C8F58038A7FB06CE38BFA8F1010807FBCA
:10A0100008E64FF0000EA6FB028CE6FB03CEDCF157
:10A02000000CCEF1004E38BFAEF1010EA6FB0C586D
:10A030004FF000074FF00005E6FB0E87A1FB08C6B6
:10A04000A0FB07CE16EB0E0645F10005E1FB076508
:10A0500015F1E04E7EBFA4F580345FEA46066D41FF
:10A0600016F1800745F100054FEA17274FEA06660B
:10A0700047EA0567A6F1DE46B6F1805F4FEA15258F
:10A080001FD9384624F0010C05EBC471BCF1FE6FFA
:10A0900001EB0C1102D8F0BCBDE8008124425CBF8A
:10A0A00001F5801E9EEAC47F02D4F0BCBDE80081A9
:10A0B000244238D4F0BCA1F1C041BDE8004100F019
:10A0C000D7B94FEAD22242EA43524FEAD323A7FB41
:10A0D00002864FEAD02040EA415007FB03661EEAA1
:10A0E0000E0F4FEAD12105FB026658BFA6EB0056C2
:10A0F000B6EB00564FEA520E4EEAC37E18EB0E0E38
:10A1000056EB530EBDD518EB02085E417F1C55F18E
:10A110000005B6E74FF480154FF000074FF000063A
:10A120004FF00008ADE7F0BC4FF0000001F1C04176
:10A1300001F00041BDE8008111EA0C1F0CEA131583
:10A1400000D00CE013EA0C1F00F025804FF0000057
:10A15000F0BC81EA030101F00041BDE80081F0BCE0
:10A16000BDE8004181EA030100F082B9F0BCBDE81E
:10A17000004170B500F02EF9097EFC3E00F007B8F2
:10A1800081EA03014FF0000001F00041704781EACD
:10A19000030100F06DB9F0BCBDE800414FF00000D4
:10A1A00021497047FFFDFBF9F7F5F4F2F0EEEDEB16
:10A1B000E9E8E6E4E3E1E0DEDDDBDAD8D7D5D4D3C5
:10A1C000D1D0CFCDCCCBCAC8C7C6C5C4C2C1C0BF11
:10A1D000BEBDBCBBBAB9B8B7B6B5B4B3B2B1B0AF17
:10A1E000AEADACABAAA9A8A8A7A6A5A4A3A3A2A1FB
:10A1F000A09F9F9E9D9C9C9B9A99999897979695B6
:10A2000095949393929191908F8F8E8E8D8C8C8B51
:10A210008B8A8989888887878685858484838382D9
:10A22000828181800000FF070000F87F10F000426B
:10A2300048BF4042B0FA80F310FA03F10AD0C3F1EC
:10A240001D0303F580634FEA415002EB035202EB1A
:10A25000D12170474FF000007047B0FA80F310FA38
:10A2600003F10AD0C3F11D0303F580634FEA4150A7
:10A270004FEA035202EBD12170474FF000007047C4
:10A28000DFF848C170B51CEA111E1EBF1CEA131589
:10A290009EEA0C0F95EA0C0F00F06F8081EA030430
:10A2A00023EA4C134EEAD47E21EA4C1141F480118A
:10A2B00043F48013AE44A1FB024CA0FB0365AEF156
:10A2C0007F7E361955EB0C05A1FB034C4CF10003C6
:10A2D000A0FB021C16EB0C06654153F1000309427A
:10A2E00018BF46F0010613F4007F0BD14FEA03318B
:10A2F0004FEA0530340341EA155140EA16506FF039
:10A3000003020AE04FEAC3214FEAC520F40241EA02
:10A31000555140EA56506FF0020202EB2E4201EB1B
:10A32000025585EACE710AD05FEA440C18BF24F0CA
:10A33000004450F1000041F1000120EAD47040F2E5
:10A34000FE7C624500D270BDA84214BF4FF080442D
:10A350004FF04044002E08BF0024BEF1806FA8BF1C
:10A36000A1F1C041BDE8704080F282804FF0000052
:10A3700001F1C04101F0004170479EEA0C0F0CEA68
:10A38000131518BF95EA0C0F06D04FF0000081EAB4
:10A39000030E0EF0004170BD00F01CF88900013E74
:10A3A00000F007B800F009B84FEA430C5FEA5C5CC4
:10A3B00008D081EA030100F05BB84FEA410C5FEA84
:10A3C0005C5CF6D14FF00000014970470000FF07C8
:10A3D0000000F87F0EF1020E2EF0030E5EF8046B03
:10A3E000364205D4012A43EB030515F5001F12D8A8
:10A3F000012841EB010C1CF5001F0CD80ED14FEACF
:10A40000D17C15F5001F0CEB4C0C0CF1020C08BFB5
:10A410004CEBD37C04E04FF0080C01E04FEAD37C16
:10A420000CEB4C0526FA05F606F00706B6F1040C0F
:10A4300006D20EEB860CBDE870404CF0010C604774
:10A44000DFE80CF0090B02024FF000414FF0000072
:10A45000A1F5002170BD19461046012851EB0104F9
:10A4600018BFD4F5001484BF002001F0004170BD76
:10A470000808A0F500114FEA3101704743004FEA88
:10A48000D30C4FEA3C0C43401FBF40070CF1605116
:10A4900013F0FE4F70471CF0006F03D100200CF04A
:10A4A000004170470CF0004343EA507010B540EA99
:10A4B000CC0000F00EF800BF000000924FEA00014F
:10A4C000FFF7D6BF4FF000414FF00000A1F500218B
:10A4D00070470EF1020E2EF0030E5EF8044B24427C
:10A4E00004D44FEA4102B2F17F4F11D84FEA400342
:10A4F000B3F17F4F0CD80ED14FEAD07CB2F17F4F31
:10A500000CEB4C0C0CF1020C08BF4CEBD17C04E0C2
:10A510004FF0080C01E04FEAD17C0CEB4C0324FA1D
:10A5200003F404F00704B4F1040C06D20EEB840C1F
:10A53000BDE810404CF0010C6047DFE80CF0070864
:10A5400002024FF00040A0F5800010BD0846420016
:10A5500018BFD2F1807288BF00F0004010BD4FF0EC
:10A560004070E1EE100A7047FF2141EAD050C0056B
:10A57000704700007D0000000000000000000000A7
:10A58000696E69745F6D6F746F7200007C2B0020C0
:10A590000C00000080000000000200007C2D002064
:10A5A0000A00000040010000BC2E00200C0000004A
:10A5B0008000000000020000BC300020800000008D
:10A5C000000200006400000040060000BC320020D1
:10A5D0003E0000000A000000FC3800200C000000D3
:10A5E000800000000002000040000000C8000000E1
:10A5F00001000000FC3A00200C0000008000000078
:10A6000000020000110000008800000002000000AD
:10A6100064000000843D00200C0000008000000069
:10A6200000020000110000008800000090140000EB
:10A630000100010178563412010100000000000001
:10A64000000000000000000000000000000000000A
:10A6500000000000000000000000000000000000FA
:10A66000000000000101010028000400200001009A
:10A6700000000000000000000000000000000000DA
:10A6800000000000000000000000000000000000CA
:10A6900001002000010010000C001000000000006C
:10A6A00000000000000000000000000000000000AA
:10A6B000000000000000000000000000000000009A
:10A6C0000000000000000000010101002C0001005A
:10A6D00020000C00200040000800040000000000E2
:10A6E000000000000000000000000000000000006A
:10A6F000000000000000000000000000000000005A
:10A700000000000000000000000000000101010145
:10A710003000010000000000000000000000000008
:10A720000000000000000000000000000000000029
:10A730000000000000000000000000000101010115
:10A7400028000C00000300000401010101010101C7
:10A7500001000101C4000800010100000000000028
:10A7600000000000000000000000000000000000E9
:10A7700000000000000000000000000000000000D9
:10A7800000000000000000000000000000000000C9
:10A790000101340008005C7696070000000000000C
:10A7A0006E83F9A22915444ED15727FCC0DD34F53C
:10A7B000999562DB4190433CAB6351FE0000000081
:10A7C00000000000057200081B7200080000000075
:10A7D000C17100089971000800000000000000002D
:10A7E00035760008C972000813760008B7740008AF
:10A7F0008D740008F1760008A572000849720008FF
:10A80000797500086D72000851770008117300080F
:10A810000000000000000000E9740008B97500089D
:10A82000417700089975000800000000577500087E
:10A83000317500080000000000000000217A0008C7
:10A84000617A00080000000000000000CD980008B8
:10A85000CD9800080000000000000000C17B000847
:10A86000F57B00081D7C00080000000000000000CF
:10A87000AB7D00089B7D0008B17D0008557C000879
:10A88000000000000000000000000000B97E000889
:10A89000000000000000000000000000CD9800084B
:10A8A000CD980008CD980008CD980008CD980008F4
:10A8B000CD980008CD980008CD980008CD980008E4
:10A8C000CD980008CD980008CD980008CD980008D4
:10A8D000CD980008CD980008CD980008CD980008C4
:10A8E000CD980008CD980008CD980008CD980008B4
:10A8F0000000000000000000CD980008CD9800087E
:10A900000000000000000000CD980008CD9800086D
:10A91000CD980008CD98000800000000000000005D
:10A9200029900008D78B0008698900086192000807
:10A93000C18B0008000000000000000000000000C3
:10A94000CD9800080000000000000000BD9E000837
:10A95000899E0008000000000000000000000000C8
:10A9600000000000CD980008CD980008CD980008A0
:10A97000CD980008CD9800080000000000000000FD
:10A98000CD980008CD980008CD980008CD98000813
:10A99000CD9800080000000000000000CD980008DD
:10A9A000CD980008CD98000856312E312E32002562
:10A9B000732D6D25646525640032303139303235B0
:10A9C00000000000E4A90008000000207001000061
:10A9D000C4010008FCA9000870010020F86600000E
:10A9E0002002000811847A030A000970010203049E
:0CA9F00006070809297809767C01700030
:040000050800018965
:00000001FF
